:020000040800F2
:100000000000022099440008D1070008D307000827
:10001000D5070008D7070008D9070008000000002E
:10002000000000000000000000000000DB070008E6
:10003000DD07000800000000DF070008E1070008F6
:10004000E9440008E9440008E9440008E9440008DC
:10005000E9440008E9440008E9440008E9440008CC
:10006000E9440008E9440008E9440008E9070008F9
:10007000E9440008E9440008E9440008E9440008AC
:10008000E9440008F9070008E9440008E9440008C9
:10009000E9440008E9440008E9440008E94400088C
:1000A000E9440008E9440008E9440008E94400087C
:1000B000E9440008E9440008E94400080908000888
:1000C000E9440008E9440008E9440008E94400085C
:1000D000E9440008E9440008E9440008E94400084C
:1000E000E9440008E9440008E9440008E94400083C
:1000F000E9440008E9440008E9440008E94400082C
:10010000E9440008E9440008E9440008E94400081B
:10011000E9440008E9440008E9440008E94400080B
:1001200019080008E9440008E9440008E944000807
:10013000E9440008E9440008E9440008E9440008EB
:10014000E9440008E9440008E9440008E9440008DB
:10015000E9440008E9440008E9440008E9440008CB
:10016000E9440008E9440008E9440008E9440008BB
:10017000E9440008E9440008E944000800000000E0
:08018000E9440008E94400080D
:1001880010B5054C237833B9044B13B10448AFF3C9
:1001980000800123237010BD3400002000000000FF
:1001A8004445000808B5034B1BB103490348AFF3A6
:1001B800008008BD00000000380000204445000809
:1001C80053B94AB9002908BF00281CBF4FF0FF31B6
:1001D8004FF0FF3000F074B9ADF1080C6DE904CEB2
:1001E80000F006F8DDF804E0DDE9022304B070470A
:1001F8002DE9F047089D04468E46002B4DD18A42D2
:10020800944669D9B2FA82F252B101FA02F3C2F104
:10021800200120FA01F10CFA02FC41EA030E944095
:100228004FEA1C48210CBEFBF8F61FFA8CF708FBB6
:1002380016E341EA034306FB07F199420AD91CEB8E
:10024800030306F1FF3080F01F81994240F21C81C0
:10025800023E63445B1AA4B2B3FBF8F008FB103308
:1002680044EA034400FB07F7A7420AD91CEB04043D
:1002780000F1FF3380F00A81A74240F2078164440D
:10028800023840EA0640E41B00261DB1D440002392
:10029800C5E900433146BDE8F0878B4209D9002DF6
:1002A80000F0EF800026C5E9000130463146BDE880
:1002B800F087B3FA83F6002E4AD18B4202D38242EA
:1002C80000F2F980841A61EB030301209E46002D99
:1002D800E0D0C5E9004EDDE702B9FFDEB2FA82F2EE
:1002E800002A40F09280A1EB0C014FEA1C471FFA4C
:1002F8008CFE0126200CB1FBF7F307FB131140EA33
:1003080001410EFB03F0884208D91CEB010103F1FF
:10031800FF3802D2884200F2CB804346091AA4B2C1
:10032800B1FBF7F007FB101144EA01440EFB00FE95
:10033800A64508D91CEB040400F1FF3102D2A645FA
:1003480000F2BB800846A4EB0E0440EA03409CE799
:10035800C6F12007B34022FA07FC4CEA030C20FA46
:1003680007F401FA06F31C43F9404FEA1C4900FA66
:1003780006F3B1FBF9F8200C1FFA8CFE09FB1811E3
:1003880040EA014108FB0EF0884202FA06F20BD956
:100398001CEB010108F1FF3A80F08880884240F2A6
:1003A8008580A8F102086144091AA4B2B1FBF9F0EA
:1003B80009FB101144EA014100FB0EFE8E4508D9E5
:1003C8001CEB010100F1FF346CD28E456AD902386A
:1003D800614440EA0840A0FB0294A1EB0E01A1424F
:1003E800C846A64656D353D05DB1B3EB080261EBBD
:1003F8000E0101FA07F722FA06F3F1401F43C5E997
:10040800007100263146BDE8F087C2F12003D840CC
:100418000CFA02FC21FA03F3914001434FEA1C470E
:100428001FFA8CFEB3FBF7F007FB10360B0C43EA00
:10043800064300FB0EF69E4204FA02F408D91CEBB0
:10044800030300F1FF382FD29E422DD902386344AE
:100458009B1B89B2B3FBF7F607FB163341EA03414E
:1004680006FB0EF38B4208D91CEB010106F1FF389D
:1004780016D28B4214D9023E6144C91A46EA004694
:1004880038E72E46284605E70646E3E61846F8E626
:100498004B45A9D2B9EB020864EB0C0E0138A3E76F
:1004A8004646EAE7204694E74046D1E7D0467BE750
:1004B800023B614432E7304609E76444023842E7C8
:1004C800704700BF84B000220192104B196B41F0B5
:1004D80080011963196B01F0800101910199029261
:1004E800196B41F001011963196B01F001010291C7
:1004F800029903921A6B42F002021A631B6B03F013
:1005080002030393039B04B0704700BF0038024006
:1005180000B585B000230093019302930393154817
:10052800154A02604FF480324260836003610376AB
:1005380080F82030C362114A8262C3600122C2611E
:1005480080F83030426100F021FA60B9002300934E
:100558000122019202936946064800F043FA28B93D
:1005680005B05DF804FB03F0D7FCEFE703F0D4FC1B
:10057800F6E700BF50000020002001400100000FF6
:1005880030B589B00023039304930593069307932A
:10059800026803F1804303F590339A4201D009B011
:1005A80030BD04460025019503F58C335A6C42F49E
:1005B80080725A645A6C02F480720192019A029510
:1005C8001A6B42F001021A631B6B03F001030293DA
:1005D800029B012303930323049303A90F4800F00C
:1005E800F9FD0F480F4B036045608560C5604FF407
:1005F800806303614FF4006343614FF400538361E8
:10060800C5610562456200F057FF18B9044BA36342
:100618009C63C4E703F080FCF8E700BF00000240D9
:10062800980000201064024010B582B000240094A5
:10063800164B1A6B42F400121A631A6B02F400127A
:100648000092009A01941A6B42F480021A631B6BA1
:1006580003F480030193019B224621460B2001F0FD
:10066800DFF80B2001F014F922462146112001F091
:10067800D7F8112001F00CF922462146382001F064
:10068800CFF8382001F004F902B010BD003802405C
:1006980008B50B480B4B03600B4B4360002383608A
:1006A800C3604FF48042026143618361C3610362A6
:1006B80001F022FE00B908BD03F02EFCFBE700BFE5
:1006C800B801002000540040A086010070B588B031
:1006D8000023039304930593069307930268334B0F
:1006E8009A4201D008B070BD044600250195304EED
:1006F800336B43F002033363336B03F0020301935C
:10070800019B4FF44073039312230493032306932E
:100718000423079303A9274800F05CFD0295336C76
:1007280043F400133364336C03F400130293029B05
:100738002148224B03604FF0007343608560C56019
:100748004FF48063036145618561C5610562456257
:1007580000F0B2FE18BB184BA3639C631848194BF2
:1007680003604FF000734360402383600023C3603D
:100778004FF48062026143618361C3610362436233
:1007880000F09AFE70B90E4B63639C630022114619
:100798001F2001F045F81F2001F07AF8A2E703F0C6
:1007A800BBFBD8E703F0B8FBEDE700BF00540040FF
:1007B8000038024000040240F800002010600240A7
:1007C80058010020A0600240FEE7FEE7FEE7FEE7D2
:1007D800FEE770477047704708B501F0BBF808BDE1
:1007E80008B5024800F016FF08BD00BFF800002059
:1007F80008B5024800F00EFF08BD00BF58010020F0
:1008080008B5024803F0AEFA08BD00BFB8010020E1
:1008180008B5024800F0FEFE08BD00BF98000020A1
:1008280082B0002100910B4B5A6C42F480425A640A
:100838005A6C02F480420092009A01911A6C42F0BC
:1008480080521A641B6C03F080530193019B02B021
:10085800704700BF003802404A4B5A6822F44032C1
:100868005A605A6841680A435A600268536823F418
:100878008073536002685368016943EA0123536037
:100888000268536823F040735360026853688168B4
:100898000B4353600268936823F400639360026813
:1008A8009368C1680B439360826A374B9A4257D06A
:1008B8000268936823F07063936002689368816AA2
:1008C8000B4393600268936823F040539360026877
:1008D8009368C16A0B4393600268936823F002032C
:1008E800936002689368017E43EA4103936090F83D
:1008F8002030002B3FD00268536843F400635360F4
:100908000268536823F46043536001684B68426A85
:10091800013A43EA42334B600268D36A23F4700316
:10092800D3620168CB6AC269013A43EA0253CB62D7
:100938000268936823F4007393600268936890F8E0
:10094800301043EA412393600268936823F480637C
:10095800936002689368416943EA81239360704712
:100968000268936823F0706393600268936823F0C9
:1009780040539360B0E70268536823F40063536000
:10098800CAE700BF002301400100000F38B310B5CB
:100998000446036C43B1236C13F0100F0BD00120F5
:1009A800002384F83C3010BDFFF7EAFD00236364A0
:1009B80084F83C30EFE7236C23F4885323F00203D8
:1009C80043F0020323642046FFF746FF00206064DB
:1009D800236C23F0030343F001032364E0E70120C1
:1009E8007047000030B482B00023019390F83C3087
:1009F800012B00F0BB80012380F83C300B68092BE9
:100A080041D90468E2689BB203EB43031E3B4FF0F5
:100A1800070C0CFA03F322EA0303E3600468E268B4
:100A28000B8803EB43031E3B8D6805FA03F313435E
:100A3800E3604B68062B3DD80468626B03EB8303C5
:100A4800053B4FF01F0C0CFA03F322EA0303636320
:100A58000468626B4B6803EB8303053BB1F800C085
:100A68000CFA03F3134363630268414B9A4251D073
:100A780002683F4B9A4256D0002380F83C30184613
:100A880002B030BC7047046822699BB203EB430391
:100A98004FF0070C0CFA03F322EA030323610468FE
:100AA80022690B8803EB43038D6805FA03F31343AC
:100AB8002361BEE70C2B16D805682A6B03EB83036A
:100AC800233B1F2404FA03F322EA03032B6305687C
:100AD8002A6B4B6803EB8303233B0C8804FA03F36C
:100AE80013432B63C0E70568EA6A03EB8303413BC2
:100AF8001F2404FA03F322EA0303EB620568EA6A97
:100B08004B6803EB8303413B0C8804FA03F313435C
:100B1800EB62A9E70B68122BAAD1164A536843F473
:100B280080035360A4E70B68103B012BA4D8114A3B
:100B3800536843F4000353600B68102B9CD10E4B91
:100B48001B6802F1467202F52E3202F28332A2FBD2
:100B580003239B0C03EB83035B00019302E0019BDF
:100B6800013B0193019B002BF9D185E7022087E720
:100B7800002001400023014008000020002800F068
:100B8800E08170B582B00446036813F0010F3BD0D2
:100B98009F4B9B6803F00C03042B2CD09C4B9B6849
:100BA80003F00C03082B21D06368B3F5803F4FD0C6
:100BB800B3F5A02F52D0964B1A6822F480321A60EF
:100BC8001A6822F480221A606368002B50D000F063
:100BD800CDFE05468E4B1B6813F4003F14D100F080
:100BE800C5FE401B6428F5D90320B1E1884B5B683A
:100BF80013F4800FD8D0864B1B6813F4003F03D042
:100C08006368002B00F09F81236813F0020F54D013
:100C18007F4B9B6813F00C0F3ED07D4B9B6803F015
:100C28000C03082B33D0E368002B68D0794B0122E2
:100C38001A6000F09BFE0546754B1B6813F0020F07
:100C480054D100F093FE401B0228F5D903207FE120
:100C58006F4A136843F480331360B5E76C4B1A6826
:100C680042F480221A601A6842F480321A60ABE7B4
:100C780000F07CFE0546664B1B6813F4003FC3D0AA
:100C880000F074FE401B6428F5D9032060E1604B36
:100C98005B6813F4800FC6D15D4B1B6813F0020F1D
:100CA80003D0E368012B40F05081594A136823F0C0
:100CB800F803216943EAC1031360236813F0080F9E
:100CC80042D063696BB3534B0122C3F8802E00F006
:100CD8004DFE05464E4B5B6F13F0020F34D100F00A
:100CE80045FE401B0228F5D9032031E1484A136824
:100CF80023F0F803216943EAC1031360DDE7454B9C
:100D080000221A6000F032FE0546414B1B6813F0C2
:100D1800020FD2D000F02AFE401B0228F5D903208A
:100D280016E13C4B0022C3F8802E00F01FFE05465A
:100D3800374B5B6F13F0020F06D000F017FE401B15
:100D48000228F5D9032003E1236813F0040F77D0B4
:100D58002F4B1B6C13F0805F33D1002301932C4B76
:100D68001A6C42F080521A641B6C03F08053019392
:100D7800019B0125284B1B6813F4807F23D0A368AF
:100D8800012B34D0052B38D0214B1A6F22F00102E9
:100D98001A671A6F22F004021A67A368002B3DD065
:100DA80000F0E4FD06461A4B1B6F13F0020F46D104
:100DB80000F0DCFD801B41F288339842F3D9032010
:100DC800C6E00025D6E7144A136843F4807313601D
:100DD80000F0CCFD0646104B1B6813F4807FCED183
:100DE80000F0C4FD801B0228F5D90320B0E0084AB2
:100DF800136F43F001031367CFE7054B1A6F42F0F7
:100E080004021A671A6F42F001021A67C5E700BFA9
:100E180000380240000047420070004000F0A6FD84
:100E28000646524B1B6F13F0020F08D000F09EFDD0
:100E3800801B41F288339842F3D9032088E0EDB94A
:100E4800A369002B00F08380484A926802F00C02E4
:100E5800082A51D0022B17D0454B00221A6600F001
:100E680085FD0446414B1B6813F0007F42D000F01B
:100E78007DFD001B0228F5D9032069E03B4A136C6D
:100E880023F080531364DBE7394B00221A6600F025
:100E98006DFD0546354B1B6813F0007F06D000F04A
:100EA80065FD401B0228F5D9032051E0E369226A59
:100EB8001343626A43EA8213A26A5208013A43EA78
:100EC8000243E26A43EA0263284A5360284B01223C
:100ED8001A6600F04BFD0446244B1B6813F0007F94
:100EE80006D100F043FD001B0228F5D903202FE0AE
:100EF80000202DE000202BE0012B2BD01B4B5B6842
:100F080003F48001E269914226D103F03F02216A8D
:100F18008A4223D1616A47F6C0721A40B2EB811F38
:100F28001ED103F44031A26A5208013AB1EB024FD4
:100F380018D103F07063E26AB3EB026F14D100209A
:100F480006E001207047012002E0012000E00020B7
:100F580002B070BD0120FBE70120F9E70120F7E7A7
:100F68000120F5E70120F3E70120F1E7003802400E
:100F78000000474208B5314B9B6803F00C03042B73
:100F880057D0082B57D12D4B5A6802F03F025B68A7
:100F980013F4800F2AD0294B5968C1F3881C4FEAF3
:100FA8004C11B1EB0C006EEB0E0E4FEA8E1343EAB8
:100FB80090638101091A63EB0E03DB0043EA517366
:100FC800C90011EB0C0C43F10003590200234FEA4E
:100FD8004C2041EADC51FFF7F3F8184B5B68C3F388
:100FE800014301335B00B0FBF3F025E0134B596874
:100FF800C1F3881C4FEA4C11B1EB0C006EEB0E0EDE
:101008004FEA8E1343EA90638101091A63EB0E03DA
:10101800DB0043EA5173C90011EB0C0C43F10003E8
:10102800990200234FEA8C2041EA9C51FFF7C8F847
:10103800D3E7034800E0034808BD00BF003802407A
:1010480000127A000024F400002800F09B8070B59C
:101058000D4604464F4B1B6803F007038B4208D22A
:10106800CBB24C4A1370136803F007038B4240F06D
:101078008B80236813F0020F17D013F0040F04D0ED
:10108800454A936843F4E0539360236813F0080FCC
:1010980004D0414A936843F4604393603E4A93689E
:1010A80023F0F003A1680B439360236813F0010F4A
:1010B80032D06368012B21D09A1E012A25D9364ADD
:1010C800126812F0020F61D033498A6822F00302D5
:1010D80013438B6000F04AFC06462F4B9B6803F0D5
:1010E8000C036268B3EB820F16D000F03FFC801B44
:1010F80041F288339842F0D9032042E0264A126828
:1011080012F4003FE0D101203BE0234A126812F0BC
:10111800007FD9D1012034E01E4B1B6803F0070380
:10112800AB4207D9EAB21B4B1A701B6803F00703DE
:10113800AB422DD1236813F0040F06D0164A9368EA
:1011480023F4E053E1680B439360236813F0080F1E
:1011580007D0114A936823F46043216943EAC10325
:101168009360FFF707FF0C4B9B68C3F303130B4A0D
:10117800D35CD8400A4B18600A4B186800F0AAFBE9
:10118800002070BD012070470120FAE70120F8E730
:101198000120F6E7003C02400038024064450008A0
:1011A8000800002004000020014B1868704700BFA9
:1011B8000800002008B5FFF7F7FF044B9B68C3F34E
:1011C8008223034AD35CD84008BD00BF00380240E0
:1011D8007445000800230F2B00F2E48070B582B03C
:1011E80060E085685E000324B44025EA0405CC6805
:1011F800B4402C438460456825EA02054C68C4F372
:1012080000129A402A4342605AE0DC08083450F839
:10121800246003F0070295000F22AA4026EA020E76
:101228000A69AA4042EA0E0240F824205CE007223C
:1012380000E0002202FA0EF22A4302345A4D45F821
:1012480024205A4A94686FEA0C0224EA0C054E6876
:1012580016F4801F01D04CEA0405544CA560E468DC
:1012680002EA04054E6816F4001F01D04CEA040592
:101278004E4CE560646802EA04054E6816F4003FC7
:1012880001D04CEA0405494C6560246822404D6849
:1012980015F4803F01D04CEA0402444C226001332B
:1012A8000F2B7DD801229A400C6804EA020C32EA1E
:1012B8000404F4D14C6804F00304013C012C90D9D7
:1012C8004A6802F00302032A09D0C4685D000322B9
:1012D800AA4024EA02048A68AA402243C2604A68F3
:1012E80002F00302022A90D004684FEA430E032258
:1012F80002FA0EF224EA02044A6802F0030202FA31
:101308000EF2224302604A6812F4403FC7D000221E
:101318000192274A546C44F480445464526C02F499
:1013280080420192019A9C08A51C1F4A52F8255038
:1013380003F003024FEA820E0F2202FA0EF225EAA8
:1013480002051C4A90423FF474AF02F58062904255
:101358001AD002F58062904218D002F5806290425D
:1013680016D002F58062904214D002F58062904255
:1013780012D002F58062904210D002F5806290424D
:101388003FF455AF082255E7012253E7022251E7FF
:1013980003224FE704224DE705224BE7062249E7DF
:1013A80002B070BD704700BF00380140003C0140EA
:1013B800003802400000024030B405682C6824F46C
:1013C80080242C60046863608368402B05D0036820
:1013D80099600368DA6030BC704703689A600368F4
:1013E800D960F8E710B40368D9B210390C4AA2FBE7
:1013F800014212090B4CA25CC2655F2909D923F48A
:101408007F7323F0030304338365806D5DF8044B19
:10141800704723F47F7323F003038365F5E700BF68
:10142800ABAAAAAA5C450008836A826992B9012B13
:101438000AD0022B02D00BB100207047C36A13F008
:10144800807F28D100207047C36AB3F1C07F24D0C1
:1014580000207047B2F5005F09D0022B25D9032B75
:1014680025D1C36A13F0807F23D100207047032B56
:1014780003D8DFE803F01404140A00207047C36A95
:1014880013F0807F0DD100207047C36AB3F1C07F8D
:1014980009D00020704701207047012070470120C3
:1014A80070470120704701207047012070470020D5
:1014B800704701207047000070B5044600F056FAE6
:1014C800002C5BD00546022384F83530002384F8CD
:1014D80034302268136823F00103136023681A6804
:1014E80012F0010F0AD000F041FA431B052BF5D981
:1014F80020236365032084F8350070BD1A682048EE
:1015080010406168A2680A43E1680A4321690A43F6
:1015180061690A43A1690A43E1690A43216A0A43E6
:101528000243616A04291ED01A602668756925F08D
:101538000705636A1D43042B07D1A36A1D43E36AA9
:101548001BB12046FFF770FF90B975612046FFF781
:1015580049FFE26D3F2393408360002060650123CB
:1015680084F83530C9E7E16A206B01430A43DBE7B9
:1015780040236365012084F83500BEE70120BCE7FD
:101588003F8010F038B50446856D90F83400012886
:101598002BD0012084F8340094F83500C0B201281B
:1015A80004D0002384F83430022038BD022084F8A7
:1015B8003500002060652046FFF7FEFEE26D3F2300
:1015C8009340AB602268136843F016031360236CE2
:1015D80023B12268136843F0080313602268136874
:1015E80043F0010313600020DFE70220DDE790F8F5
:1015F8003530DBB2022B03D08023436501207047CE
:10160800052380F835300268136823F0010313605E
:1016180000207047F0B583B0044600230193724B55
:101628001D68724BA3FB0535AD0A876D3E68C26D18
:1016380008239340334210D003681A6812F0040F4D
:101648000BD01A6822F004021A60C26D0823934076
:10165800BB60436D43F001034365E26D0123934092
:10166800334209D02268526912F0800F04D0BB605F
:10167800636D43F002036365E26D042393403342D4
:1016880009D02268126812F0020F04D0BB60636DA3
:1016980043F004036365E26D10239340334224D082
:1016A8002268126812F0080F1FD0BB6023681A68FE
:1016B80012F4802F0DD01B6813F4002F04D1236C73
:1016C8009BB12046984710E0A36C73B12046984719
:1016D8000BE01A6812F4807F03D11A6822F008021E
:1016E8001A60236C0BB120469847E26D2023934083
:1016F800334255D02268126812F0100F50D0BB60E8
:1017080094F83530DBB2052B0ED023681A6812F432
:10171800802F33D01B6813F4002F2AD1636C002B61
:101728003ED0204698473BE02268136823F0160312
:1017380013602268536923F080035361236CA3B1BB
:101748002268136823F008031360E26D3F23934077
:10175800BB60012384F83530002384F83430236DCE
:10176800002B3FD0204698473CE0A36C002BE7D1E4
:10177800EBE7E36BA3B12046984711E01A6812F42F
:10178800807F09D11A6822F010021A60012384F8B8
:101798003530002384F83430E36B0BB1204698478A
:1017A800636DFBB1636D13F0010F17D0052384F847
:1017B80035302268136823F001031360019B01335D
:1017C8000193AB4204D823681B6813F0010FF5D1CD
:1017D800012384F83530002384F83430E36C0BB1EE
:1017E8002046984703B0F0BD08000020B5814E1B85
:1017F80090F835007047406D70470000074AD3687D
:1018080023F4E0631B041B0C000200F4E0600343B4
:1018180043F0BF6343F40033D360704700ED00E04A
:1018280000B5194BDB68C3F30223C3F1070CBCF105
:10183800040F28BF4FF0040C03F1040EBEF1060F8D
:1018480018D9033B4FF0FF3E0EFA0CFC21EA0C01BD
:1018580099400EFA03F322EA0303194300280BDB2D
:101868000901C9B200F1604000F5614080F8001339
:101878005DF804FB0023E5E700F00F000901C9B299
:10188800024B1954F4E700BF00ED00E014ED00E04E
:10189800002807DB00F01F02400901239340024A99
:1018A80042F82030704700BF00E100E00138B0F195
:1018B800807F0BD24FF0E0235861054AF02182F86F
:1018C80023100020986107221A6170470120704791
:1018D80000ED00E010B504460E4B18784FF47A730B
:1018E800B3FBF0F30C4A1068B0FBF3F0FFF7DEFF30
:1018F80068B90F2C01D901200AE0002221464FF0D7
:10190800FF30FFF78DFF054B1C60002000E0012031
:1019180010BD00BF000000200800002004000020C7
:1019280008B50B4B1A6842F400721A601A6842F440
:1019380080621A601A6842F480721A600320FFF706
:101948005DFF0F20FFF7C6FFFEF76AFF002008BD06
:10195800003C0240034A1168034B1B780B44136098
:10196800704700BF0C02002000000020014B1868DF
:10197800704700BF0C02002038B50446FFF7F6FF99
:101988000546B4F1FF3F02D0044B1B781C44FFF717
:10199800EDFF401BA042FAD338BD00BF0000002075
:1019A80003685A6912F0800F01D000221A6170474B
:1019B80090F83E30DBB2402B10D00369B3F5804F6E
:1019C8001BD0036D002B39D1436CC3F3C8130268D5
:1019D80003F0060343F0F00313617047036D2BB95E
:1019E800436C026803F0FE0313617047436C02689E
:1019F80043F00103DBB21361704790F83D30DBB26E
:101A0800212B0FD0436C026843F00103DBB2136152
:101A1800436B6BB1DB6B5BB10268536843F40063E3
:101A280053607047436C026803F0FE031361EFE7ED
:101A3800836B33B1DB6B002BEED102E0036D012B1E
:101A480000D07047436CC3F3C813026803F0060361
:101A580043F0F1031361F4E7436C0268DBB21361EE
:101A6800436B3BB1DB6B2BB10268536843F40063F3
:101A780053607047836B002BFBD0DB6B002BF3D1DB
:101A8800F7E710B48BB090F83E30DAB2C16A046B55
:101A980090F83D30DBB2222B0BD00023099303686A
:101AA8005A6909929B690993099B0BB05DF8044B2D
:101AB8007047036D0BB9402A17D0036D1BB9036932
:101AC800B3F5404F19D0438D9BB2002B25D102931B
:101AD80003685A6902929A690292029A1A6842F451
:101AE80000721A6000230365DFE7009303685A69F0
:101AF80000929B690093009BD7E70023019303683A
:101B08005A6901929A690192019A1A6842F480729C
:101B18001A60036D01330365C7E7438D9BB2012B40
:101B280025D0438D9BB2022B7BD00268136843F407
:101B38008063136003685A6812F4006F0ED011F5C1
:101B4800803F07D0012905D0082903D0102901D0EA
:101B5800202903D15A6842F480525A60002308931E
:101B680003685A6908929B690893089BBAE711F5BC
:101B7800803F11D0082934D0202932D0122C2ED001
:101B8800042940D002293ED010293CD002681368AD
:101B980023F4806313603BE00268136823F48063D6
:101BA800136003685A6812F4006F0CD01A6822F4A4
:101BB80080621A600023039303685A6903929B6941
:101BC8000393039B8EE7002204925A6904929A6950
:101BD8000492049A1A6842F400721A6082E7012992
:101BE800CED00268136823F4806313600023069341
:101BF80003685A6906929A690692069A1A6842F424
:101C080000721A606EE70268136843F48063136019
:101C18000023059303685A6905929B690593059B00
:101C280060E704290ED002290CD010290AD00268D6
:101C3800136823F4806313600268136843F4006335
:101C4800136004E00268136843F480631360036858
:101C58005A6812F4006F0ED011F5803F07D00129A1
:101C680005D0082903D0102901D0202903D15A68AA
:101C780042F480525A600023079303685A69079216
:101C88009B690793079B2DE7438D9BB25BB1426A23
:101C9800036812781A61436A01334362438D9BB229
:101CA800013B9BB243857047438D9BB25BB1036890
:101CB8001A69436A1A70436A01334362438D9BB2BF
:101CC800013B9BB24385704782B0002301930E4BC2
:101CD8001B68DB080D4AA2FB03231B0A03EB8303E3
:101CE8000193019B013B0193019B33B103681B687E
:101CF80013F4007FF5D1002004E0036C43F02003C7
:101D08000364012002B070470800002089B5F81468
:101D180003685A6912F4806F01D1002070476FF48C
:101D280080625A6100230363202280F83D2080F8F6
:101D38003E30026C42F00402026480F83C3001201C
:101D48007047C36AB3F52A0F04D0C36AB3F12A4FA8
:101D580003D070470123C36270470823C362F8E7C2
:101D68002DE9F04106460C46174698463BE0FFF73A
:101D7800FDFD069BC01A404502D8B8F1000F32D1CC
:101D8800012D18D033689B6924EA03039BB2B3FA88
:101D980083F35B099F4226D100233363202286F810
:101DA8003D2086F83E30326C42F02002326486F8DC
:101DB8003C30012027E033685B6924EA03039BB2C7
:101DC800B3FA83F35B09E5E733685B6924EA030C3C
:101DD8001FFA8CFCBCFA8CFC4FEA5C1C674511D1DD
:101DE800B8F1FF3FC3D1C4F30745012DECD03368E8
:101DF8009B6924EA030C1FFA8CFCBCFA8CFC4FEAA2
:101E08005C1CEBE70020BDE8F0812DE9F8430546AE
:101E18000E469046994653E01A6842F400721A60DA
:101E28002B686FF480625A6100232B63202285F8A7
:101E38003D2085F83E302A6C42F004022A6485F879
:101E48003C3001204AE0FFF791FDA0EB0900404536
:101E580002D8B8F1000F33D1012F17D02B689B6936
:101E680026EA03039BB2003B18BF012343B30023B8
:101E78002B63202285F83D2085F83E302A6C42F0FD
:101E880020022A6485F83C30012027E02B685B6932
:101E980026EA03039BB2003B18BF0123E6E72B6841
:101EA8009C6926EA0404A4B2003C18BF0124A4B12A
:101EB8002B685A6912F4806FAED1B8F1FF3FC2D1D6
:101EC800C6F30747012FEAD12B685C6926EA0404A8
:101ED800A4B2003C18BF0124E9E70020BDE8F8835C
:101EE800F0B583B004460D4616461F46C36A082B54
:101EF8000DD0012B0BD013F5803F08D0036B122BAC
:101F08000AD10268136843F48073136004E02268FE
:101F1800136843F4807313600097334600224FF030
:101F280001112046FFF71CFF80B92369B3F5804FE4
:101F380016D1236805F0FE051D613B46324613495C
:101F48002046FFF762FFF8B903B0F0BD23681B68AD
:101F580013F4807F02D04FF4007323640320F3E767
:101F6800EB11226803F0060343F0F00313613B46CC
:101F7800324607492046FFF748FF18B92368EDB2F3
:101F88001D61DAE70120DFE70120DDE7020001003B
:101F98000800010070B504460D46164623685B69C3
:101FA80013F0800F21D12046FFF7B2FEF8B9B5F142
:101FB800FF3FF3D0FFF7DAFC801BA84201D8002DC1
:101FC800ECD123685B6913F0800FE7D1002323630A
:101FD800202284F83D2084F83E30226C42F0200212
:101FE800226484F83C30012000E0002070BD01200C
:101FF800FCE700002DE9F04385B004460D46914604
:102008001F46DDF830800D9E0368196841F4807121
:1020180019600096434600224FF00111FFF7A0FE19
:1020280060B9236805F0FE051D613346424626491E
:102038002046FFF7EAFE68B1012008E023681B6824
:1020480013F4807F02D04FF400732364032005B09B
:10205800BDE8F0830023039323685A6903929B69C0
:102068000393039B324641462046FFF793FF30B95E
:10207800012F0FD123685FFA89F61E61E7E7236C09
:10208800042B01D00120E2E72268136843F40073AF
:102098001360F7E723684FEA19221A61324641466E
:1020A8002046FFF777FF20B923685FFA89F61E619B
:1020B800CDE7236C042B01D00120C8E72268136800
:1020C80043F400731360F7E7020001002DE9F047BD
:1020D80084B004460D46164699460C9FDDF83480B8
:1020E8000268136843F4806313600368196841F455
:1020F80080711960CDF800803B4600224FF0011135
:10210800FFF72EFE70B95FFA85FA236805F0FE0521
:102118001D6143463A4641492046FFF776FE68B1BD
:10212800012008E023681B6813F4807F02D04FF475
:1021380000732364032004B0BDE8F08700230393F1
:1021480023685A6903929B690393039B4246394665
:102158002046FFF71FFF80B9B9F1010F18D1236896
:10216800F6B21E61424639462046FFF713FF68B3B0
:10217800236C042B24D00120DDE7236C042B01D031
:102188000120D8E72268136843F400731360F7E767
:102198002368320A1A61424639462046FFF7FAFE9A
:1021A80018B92368F6B21E61DCE7236C042B01D052
:1021B8000120C0E72268136843F400731360F7E74F
:1021C8002268136843F400731360D4E72268136825
:1021D80043F480731360CDF800803B4600224FF033
:1021E80001112046FFF7BCFD68B922684AF00103D7
:1021F800136143463A4609492046FFF706FE002880
:1022080099D0012097E723681B6813F4807F02D0D8
:102218004FF40073236403208DE700BF0200010020
:1022280070B504460D46164623685B6913F0040F23
:1022380021D12046FFF76CFDF8B9B5F1FF3FF3D087
:10224800FFF794FB801BA84201D8002DECD123682E
:102258005B6913F0040FE7D100232363202284F87D
:102268003D2084F83E30226C42F02002226484F83B
:102278003C30012000E0002070BD0120FCE770B573
:1022880004460D46164614E06FF010025A6100230A
:102298002363202284F83D2084F83E30226C226497
:1022A80084F83C30012025E023685B6913F0400F77
:1022B80010D02368586910F0400F1AD1586910F0EF
:1022C800100FE1D1FFF752FB801BA842ECD8002D7C
:1022D800EFD1E9E700232363202284F83D2084F826
:1022E8003E30226C42F02002226484F83C30012007
:1022F80000E0002070BD0000002800F0CC8070B520
:10230800044690F83D30002B77D0242384F83D30E4
:102318002268136823F0010313602268136843F4EA
:10232800004313602268136823F400431360FEF728
:1023380041FF62685A4B9A4264D85A4B98428CBF04
:1023480000230123002B40F0A8805749A1FB00314E
:102358008B0C25686A6822F03F0242EA91426A6063
:1023680021680A6A22F03F0266684D4DAE424FD896
:10237800013313430B622168CA6922F44F4222F0E9
:10238800FF026668464B9E424CD8431E7600B3FB5C
:10239800F6F3013340F6FC70034278D0C3F30B0325
:1023A8001343CB6121680B6823F0C003E269206AFC
:1023B800024313430B6021688B6823F4034323F023
:1023C800FF032269E068024313438B602168CB68EE
:1023D80023F0FF036269A06902431343CB602268BC
:1023E800136843F00103136000202064202384F85D
:1023F8003D30206384F83E0070BD80F83C30FEF725
:1024080065F982E7294B98428CBF0023012399E79D
:102418004FF4967505FB03F3254DA5FB03539B0964
:102428000133A6E7A368BBB9451E06EB460CB5FB0E
:10243800FCF50135C5F30B05B5FA85F56D0945BB06
:10244800C3B9013806EB4603B0FBF3F30133C3F31A
:102458000B0343F40043A3E7451E06EB860C0CEB85
:102468008C0CB5FBFCF50135C5F30B05B5FA85F504
:102478006D09E4E7013806EB860303EB8303B0FB41
:10248800F3F30133C3F30B0343F4404388E7042316
:1024980086E7012384E7012070470120ACE700BFED
:1024A800A08601007F841E0083DE1B43FF083D00D9
:1024B800D34D62102DE9F04385B004460F4691468E
:1024C80098460C9EFFF752FA054694F83D00C0B2B4
:1024D800202804D00227384605B0BDE8F0830095CF
:1024E800192301224F492046FFF73AFC002840F003
:1024F800928094F83C30012B00F08F80012384F8FF
:102508003C3023681A6812F0010F03D11A6842F0B0
:1025180001021A602268136823F400631360212300
:1025280084F83D30102384F83E3000232364C4F837
:102538002490A4F82A80638D23853B4BE3622B46C5
:10254800324639462046FFF7CBFC0746002866D1BD
:102558000023039323685A6903929B690393039B9F
:1025680011E0236C042B01D00127B4E7226813681B
:1025780043F400731360F7E72A4631462046FFF715
:102588004FFE00282ED1238D002B36D02A46314607
:102598002046FFF7FFFC0028E3D1626A236812781F
:1025A8001A61606A431C6362618D89B2013989B21C
:1025B8006185238D013B9BB223852268516911F007
:1025C800040FD9D0002BD7D043781361636A013345
:1025D8006362638D9BB2013B9BB26385238D013B94
:1025E8002385C9E7236C042B01D0012773E72268F0
:1025F800136843F400731360F7E72268136843F421
:1026080000731360202384F83D30002384F83E30A3
:1026180084F83C305FE702275DE702275BE7012784
:1026280059E700BF020010000000FFFF30B482B07D
:102638000024019490F83D40E4B2202C53D12D4C55
:102648002468E4082C4DA5FB0454240A04EB8404F4
:1026580004EB84040194019C013C0194019C002C2E
:1026680035D00468A56915F0020FF4D190F83C50F4
:10267800012D3CD0012580F83C50256815F0010F4C
:1026880003D1256845F00105256005682C6824F408
:1026980000642C60212480F83D40102480F83E40DE
:1026A8000024046442624385438D0385134BC3624F
:1026B800416480F83C400268536843F4E063536027
:1026C8000268136843F48073136020460CE000230B
:1026D8000363202280F83D2080F83E30036C1343CA
:1026E8000364022000E0022002B030BC70470220E0
:1026F800FAE700BF0800002089B5F8140000FFFFC2
:1027080030B583B005460020019095F83D00C0B271
:10271800202840F0AA8057480068C008564CA4FBFF
:102728000040000A00EB800000EB80000190019C53
:10273800013C01940198002851D02868846914F05C
:10274800020FF4D195F83C40012C00F0918001244F
:1027580085F83C40046814F0010F03D1046844F084
:10276800010404602C68206820F4006020602120A7
:1027780085F83D00102085F83E00002028646A6234
:102788006B856B8D9BB22B853C4AEA626964002B92
:1027980057D06B6B002B2ED0394ADA636B6B394AF2
:1027A800DA646A6B10646A6B50646A6B90646A6B73
:1027B80010652A682B8D1032696A686BFEF7E2FE95
:1027C80038B3202385F83D30002285F83E202B6C55
:1027D80043F010032B6485F83C20012046E00023D9
:1027E8002B63202285F83D2085F83E302B6C13435F
:1027F8002B6402203AE0202385F83D30002285F83A
:102808003E202B6C43F080032B6485F83C2001208C
:102818002CE0002385F83C302A68536843F4407361
:1028280053602A68536843F4006353602A68136846
:1028380043F4806313602A68136843F48073136059
:1028480011E02A68136843F4806313602A681368E8
:1028580043F480731360002385F83C302A6853687A
:1028680043F4E0635360002000E0022003B030BD71
:102878000220FBE70800002089B5F8140000FFFFDC
:102888004B370008053700082DE9F04383B00446AC
:102898000F46904699460C9EFFF768F8054694F84F
:1028A8003D00C0B2202803D0022003B0BDE8F08369
:1028B8000095192301224B492046FFF751FA0028B9
:1028C80040F0898094F83C30012B00F08680012389
:1028D80084F83C3023681A6812F0010F03D11A6893
:1028E80042F001021A602268136823F4006313603F
:1028F800212384F83D30402384F83E3000232364AC
:102908000A9B6362BDF82C306385638D2385364B43
:10291800E362019500964B46424639462046FFF74A
:1029280069FB00285BD1238D002B35D02A46314620
:102938002046FFF72FFB20BB626A236812781A61D2
:10294800626A531C6362218D013989B22185638DC6
:102958009BB2013B9BB263852368586910F0040F52
:10296800E1D00029DFD052781A61636A01336362CB
:10297800238D013B2385638D9BB2013B9BB263850D
:10298800D1E7236C042B01D001208EE7226813685D
:1029980043F400731360F7E72A4631462046FFF7F1
:1029A8003FFC50B1236C042B01D001207DE7226845
:1029B800136843F400731360F7E72268136843F45D
:1029C80000731360202384F83D30002384F83E30E0
:1029D80084F83C3069E7022067E7022065E70120B8
:1029E80063E700BF020010000000FFFF2DE9F0437D
:1029F80087B004460F4690469946109EFEF7B6FFEC
:102A0800054694F83D00C0B2202804D00227384675
:102A180007B0BDE8F08300951923012288492046B4
:102A2800FFF79EF9002840F04D8194F83C30012BC7
:102A380000F04A81012384F83C3023681A6812F0B8
:102A4800010F03D11A6842F001021A602268136864
:102A580023F400631360222384F83D30402384F874
:102A68003E30002323640E9B6362BDF83C306385CF
:102A7800638D2385734BE362019500964B4642466E
:102A880039462046FFF722FB0746002840F01E8102
:102A9800238D5BB9029323685A6902929A6902925C
:102AA800029A1A6842F400721A6075E0012B0AD083
:102AB800022B1AD00023059323685A6905929B6953
:102AC8000593059B68E02268136823F4806313600C
:102AD8000023039323685A6903929A690392039A1D
:102AE8001A6842F400721A6056E02268136823F4E8
:102AF800806313602268136843F400631360002343
:102B0800049323685A6904929B690493049B43E0E5
:102B18002A4631462046FFF7B2FB002840F0D8800D
:102B280023681A69636A1A70636A01336362238DC2
:102B3800013B2385638D9BB2013B9BB263852BE0F0
:102B480000953346002240492046FFF709F900283E
:102B580040F0C0802268136843F400731360236850
:102B68001A69636A1A70626A531C6362238D013B97
:102B78002385638D9BB2013B9BB2638523681B69E8
:102B88005370636A01336362238D013B2385638D30
:102B98009BB2013B9BB26385238D002B00F089809B
:102BA800032B53D8012BB3D0022BC9D00095334641
:102BB800002225492046FFF7D3F8002840F08C80F2
:102BC8002268136823F48063136023681A69636AB0
:102BD8001A70636A01336362238D013B2385638D19
:102BE8009BB2013B9BB26385009533460022164990
:102BF8002046FFF7B5F8002870D12268136843F41F
:102C08000073136023681A69636A1A70626A531C36
:102C18006362238D013B2385638D9BB2013B9BB28D
:102C2800638523681B695370636A01336362238D6C
:102C3800013B2385638D9BB2013B9BB26385ABE768
:102C4800020010000000FFFF040001002A46314680
:102C58002046FFF714FB002842D123681A69636AEB
:102C68001A70636A01336362228D013A92B2228537
:102C7800638D9BB2013B9BB263852368596911F050
:102C8800040F89D0032A0FD023681A69636A1A705F
:102C9800636A01336362238D013B2385638D9BB295
:102CA800013B9BB2638577E71A6822F480621A6059
:102CB800EAE7202384F83D30002384F83E3084F886
:102CC8003C30A4E60227A2E60227A0E601279EE6FA
:102CD80001279CE601279AE6012798E6012796E650
:102CE800012794E630B482B00024019490F83D4066
:102CF800E4B2202C59D1304C2468E4082F4DA5FBB0
:102D08000454240A04EB840404EB84040194019C15
:102D1800013C0194019C002C3BD00468A56915F086
:102D2800020FF4D190F83C50012D42D0012580F8D3
:102D38003C50256815F0010F03D1256845F00105C1
:102D4800256005682C6824F400642C60212480F830
:102D58003D40402480F83E4000240464049D4562C0
:102D6800BDF814504585458D0585154DC5624164EE
:102D78008264C36404650268136843F48073136053
:102D880080F83C400268536843F4E063536020468F
:102D98000CE000230363202280F83D2080F83E30B9
:102DA800036C13430364022000E0022002B030BC2D
:102DB80070470220FAE700BF0800002089B5F81420
:102DC8000000FFFF30B482B00024019490F83D4029
:102DD800E4B2202C60D1334C2468E408324DA5FBC2
:102DE8000454240A04EB840404EB84040194019C35
:102DF800013C0194019C002C42D00468A56915F09F
:102E0800020FF4D190F83C50012D49D0012580F8EB
:102E18003C50256815F0010F03D1256845F00105E0
:102E2800256005682C6824F400642C60222480F84E
:102E38003D40402480F83E4000240464049D4562DF
:102E4800BDF814504585458D0585184DC56241640A
:102E58008264C36404650268136843F48063136082
:102E68000268136843F48073136080F83C40038D54
:102E780023B10268536843F4E063536000200CE018
:102E880000230363202280F83D2080F83E30036C45
:102E980013430364022000E0022002B030BC7047F4
:102EA8000220FAE70800002089B5F8140000FFFFA7
:102EB8002DE9F04385B005460E461746984600238F
:102EC8000393FEF753FD95F83D30DBB2202B40F01D
:102ED800C8808146664B1B68DB08664AA2FB032351
:102EE8001B0A03EB830303EB83030393039C013C5B
:102EF8000394039C002C59D02B689A6912F0020F96
:102F0800F4D195F83C20012A00F0AF80012285F821
:102F18003C201A6812F0010F03D11A6842F001022E
:102F28001A602A68136823F400631360212385F864
:102F38003D30402385F83E3000222A640C9B6B62AA
:102F4800BDF834306B856B8D9BB22B854A49E9629D
:102F58006E64AF64C5F84C802A65002B73D06B6B28
:102F6800002B2FD0454ADA636B6B454ADA646A6BEB
:102F7800002313646A6B53646A6B93646A6B13650A
:102F88002A682B8D1032696A686BFEF7FBFA38B332
:102F9800202385F83D30002285F83E202B6C43F035
:102FA80010032B6485F83C2001205BE000232B6391
:102FB800202285F83D2085F83E302B6C13432B6486
:102FC80002204FE0202385F83D30002285F83E207E
:102FD8002B6C43F080032B6485F83C20012041E0F2
:102FE800CDF804902323009343463A4631462846B9
:102FF800FFF700F898B9002202922B6859690291EC
:1030080099690291029985F83C205A6842F48072C5
:103018005A602A68536843F40063536022E0686B7F
:10302800FEF7E5FA6A6B0023D36329680A6822F47D
:1030380080620A602B856B852A68136823F0010378
:10304800136001200EE0202385F83D30002285F82A
:103058003E202B6C43F040032B6485F83C20012074
:1030680000E0022005B0BDE8F0830220FAE700BFC7
:103078000800002089B5F8140000FFFF4B3700084E
:10308800053700082DE9F04387B005460E46174678
:103098009846FEF76BFC0023059395F83D30DBB2AC
:1030A800202B40F0E7808146764B1B68DB08764A88
:1030B800A2FB03231B0A03EB830303EB83030593A0
:1030C800059C013C0594059C002C5AD02B689A69F4
:1030D80012F0020FF4D195F83C20012A00F0CE80BE
:1030E800012285F83C201A6812F0010F03D11A68F2
:1030F80042F001021A602A68136823F4006313601F
:10310800222385F83D30402385F83E3000222A648A
:103118000E9B6B62BDF83C306B856B8D9BB22B852B
:103128005A49E9626E64AF64C5F84C802A65002B81
:1031380000F08280AB6B002B2FD0554ADA63AB6B63
:10314800544ADA64AA6B00231364AA6B5364AA6B0B
:103158009364AA6B136529682B8D6A6A1031A86B72
:10316800FEF710FA38B3202385F83D30002285F8A1
:103178003E202B6C43F010032B6485F83C20012083
:1031880079E000232B63202285F83D2085F83E3026
:103198002B6C13432B6402206DE0202385F83D300F
:1031A800002285F83E202B6C43F080032B6485F8C1
:1031B8003C2001205FE0CDF8049023230093434690
:1031C8003A4631462846FEF781FFD8B92B8D012BA8
:1031D8002CD02A68536843F480535360002203922A
:1031E8002B685969039199690391039985F83C20E3
:1031F8005A6842F480725A602A68536843F400633C
:10320800536035E0A86BFEF7F2F9AA6B0023D3638D
:1032180029680A6822F480620A602B856B852A680F
:10322800136823F001031360012024E02A6813685F
:1032380023F480631360D1E7CDF80490232300932F
:1032480043463A4631462846FEF740FFC0B90021BA
:1032580004912B685A6904929A690492049A1A682C
:1032680042F400721A60202385F83D3085F83C103E
:10327800002000E0022007B0BDE8F0830220FAE752
:103288000120F8E70800002089B5F8140000FFFFC6
:103298004B37000805370008704708B590F83D30EF
:1032A800DAB2438D9BB283B1416A03680978196128
:1032B800436A01334362438D9BB2013B9BB2438512
:1032C800438D9BB20BB9292A00D008BD0268536808
:1032D80023F48063536021230363282380F83D305F
:1032E800FFF7DAFFF1E7704708B590F83D30DAB23A
:1032F800438D9BB283B103681969436A1970436AA5
:1033080001334362438D9BB2013B9BB24385438D9E
:103318009BB20BB92A2A00D008BD0268536823F46F
:103328008063536022230363282380F83D30FFF72E
:10333800DAFFF1E7704700B583B090F83D3003F04D
:103348002803282B0CD000230193026851690191AE
:1033580092690192019A80F83C3003B05DF804FB51
:103368000268536823F48063536011F0040F0BD094
:10337800002311F0800F09D18289002180F83C10C8
:103388001946FFF7D7FFE8E70123F2E7028BF4E7D6
:10339800704708B5C26A90F83D30DBB2212B00D0E7
:1033A80008BD438D9BB263B1426A036812781A6103
:1033B800436A01334362438D9BB2013B9BB2438511
:1033C800EEE7082A04D0202A02D012F5803F19D14E
:1033D8000268536823F4E06353600268136843F497
:1033E8000073136000230363202380F83D3090F8B6
:1033F8003E30DBB2402B15D0002380F83E3000F081
:10340800B3FECDE70268536823F4E06353601123E9
:103418000363002380F83E30202380F83D3000F01D
:10342800A3FEBDE7002380F83E3000F0A2FEB7E718
:1034380008B590F83D30026D9AB9C36C012B08D0DD
:10344800836CC3F3072302681361036D01330365BB
:1034580008BD836C0268DBB21361036D0233036538
:10346800F6E7DBB2026D012A23D0026D022A3ED1B3
:10347800222B26D0428D92B20AB1212B2AD0428D1E
:1034880092B2002AE4D1212BE2D10268536823F4D6
:10349800E06353600268136843F400731360002309
:1034A8000363202280F83D2080F83E3000F061FE62
:1034B800CEE7836C0268DBB21361036D01330365E9
:1034C800C6E70268136843F480731360036D013321
:1034D8000365BDE7426A036812781A61436A0133DB
:1034E8004362438D9BB2013B9BB24385B0E7FEF735
:1034F80057FAADE710B590F83D30DBB290F83E20B2
:10350800D2B2C46A018D09B9212B04D0212B3BD03A
:10351800402A37D010BD082C04D0202C02D014F536
:10352800803F19D10268536823F4E063536002684E
:10353800136843F40073136000230363202380F8A7
:103548003D3090F83E30DBB2402B15D0002380F898
:103558003E3000F009FEDDE70268536823F4E063BB
:10356800536011230363002380F83E30202380F842
:103578003D3000F0F9FDCDE7002380F83E3000F043
:10358800F8FDC7E7222BC5D1438D9BB22BB9026842
:10359800536823F480635360BCE790F83E30DBB295
:1035A800402B0CD0426A036812781A61436A0133CF
:1035B8004362438D9BB2013B9BB24385AAE7FFF769
:1035C80037FFA7E708B5C26A438D9BB2042B14D016
:1035D800438D9BB2032B22D0438D9BB2022B39D053
:1035E80003681A69436A1A70436A01334362438D58
:1035F8009BB2013B9BB2438510E00268536823F4F9
:103608008063536003681A69436A1A70436A013316
:103618004362438D9BB2013B9BB2438508BD016861
:103628004B6823F480634B60042A06D0022A04D036
:103638000268136823F48063136003681A69436A95
:103648001A70436A01334362438D9BB2013B9BB2BC
:103658004385E3E7012A0BD0102A09D0042A3AD07F
:10366800022A38D001680B6843F400730B6004E049
:1036780001680B6823F480630B6003681969436A67
:103688001970416A4B1C4362438D9BB2013B9BB24C
:10369800438503681B694B70436A01334362438D5A
:1036A8009BB2013B9BB2438501684B6823F440738E
:1036B8004B60202380F83D3090F83E30DBB2402B41
:1036C8000FD0002380F83E30082A11D0202A0FD0CE
:1036D800122303630EE001680B6843F480630B60F8
:1036E800CBE7002380F83E30036300F048FD95E700
:1036F8000023036300F042FD90E7704710B5846B28
:10370800636B0BB10022DA63A36B0BB10022DA639F
:10371800FEF771F8022800D110BD2268136823F45F
:103728008063136000236385202284F83D2084F899
:103738003E30236C43F0100323642046FFF7DDFF7F
:10374800EAE738B5846B94F83D30DBB294F83E2054
:10375800D1B2E56A2068426822F440724260626B26
:103768000AB10020D063A26B0AB10020D06303F035
:103778002102212A42D003F02202222A3CD094F8C6
:103788003E30002B4AD0638D9BB2012B59D0226862
:10379800536823F44073536015F5803F06D0082D15
:1037A80004D0B5F12A4F01D0202D04D12268136826
:1037B80043F4007313602268536823F48053536002
:1037C8002268536823F40063536000236385236CE5
:1037D800002B3CD1202384F83D3094F83E30DBB2F6
:1037E800402B38D0002384F83E30082D3BD0202DC4
:1037F80039D01223236338E02029C0D121684A68D0
:1038080022F400624A6000226285292B07D02A2B05
:103818000ED02268536843F44073536038BD2123A7
:103828002363282384F83D302046FFF735FDF0E771
:1038380022232363282384F83D302046FFF753FDD5
:10384800E7E72268136823F4806313609FE7204644
:10385800FFF753FFE2E7002384F83E302363204656
:1038680000F08DFCDAE700232363204600F086FC95
:10387800D4E738B590F83D30DBB2222B00D038BD04
:103888000446C56A438D9BB2032B15D903681A6990
:10389800436A1A70436A01334362438D9BB2013B0A
:1038A8009BB24385438D9BB2032BE8D102685368D2
:1038B80023F480635360E2E7C26A022A01D0012B35
:1038C80005D92268536823F480635360D7E7FEF76D
:1038D800FBF9002835D12268136823F4806313604C
:1038E8002268536823F4E063536023681A69636AA3
:1038F8001A70636A01336362638D9BB2013B9BB2AA
:103908006385202384F83D3094F83E30DBB2402BA9
:1039180009D0002384F83E30082D0CD0202D0AD081
:103928001223236309E0002384F83E3023632046F2
:1039380000F025FCA3E700232363204600F01EFCCB
:103948009DE72268536823F4E063536023681A698B
:10395800636A1A70636A01336362638D9BB2013BC9
:103968009BB26385202384F83D30002384F83E30E1
:103978002046FFF7C2FE82E77047000000B583B01B
:1039880000230193806B90F83D20D2B2324B1B6824
:10399800DB083249A1FB03131B0A03EB8303C3EBC8
:1039A800C3030193019B43B1019B013B019303684E
:1039B8001B6813F4007FF5D103E0036C43F0200388
:1039C8000364436B0BB10021D963836B0BB10021F6
:1039D800D96301680B6823F480630B600023438577
:1039E800436B0BB100211965836B0BB1002119657D
:1039F80001680B6823F001030B6090F83D30DBB2DF
:103A0800602B0ED002F02802282A14D0202380F838
:103A18003D30002380F83E30FFF76FFE03B05DF8BD
:103A280004FB202380F83D30002380F83E300364F7
:103A3800FFF7A2FFF2E70268136843F0010313607F
:103A48000268136843F48063136000230363282328
:103A580080F83D30E0E700BF0800002089B5F81481
:103A680010B5044690F83D30DBB290F83E20D2B253
:103A7800102A36D0402A34D003F02802282A38D019
:103A88002268526812F4006F07D1602B05D02023FA
:103A980084F83D30002384F83E30002323632368F4
:103AA8005A6812F4006F48D05A6822F400625A60CB
:103AB800626B92F83530DBB2012B20D0444B136592
:103AC800606BFDF794FD002849D02268136823F045
:103AD80001031360202384F83D30606B036D984721
:103AE8003DE0222BC8D121680A6822F400620A60EE
:103AF800C2E700232363282384F83D30CFE7A36B74
:103B0800334A1A65A06BFDF772FD40B323685A6902
:103B180012F0400F05D01A69636A1A70636A01339C
:103B280063622268136823F001031360202384F87A
:103B38003D30A06B036D984711E094F83D20D2B258
:103B4800602A1FD05A6912F0400F05D01A69636ABB
:103B58001A70636A013363622046FFF7CEFD236C57
:103B680013F00F0F04D02268536823F4E063536006
:103B780094F83D30DBB2226C12F0040F01D0282BF0
:103B880018D010BD202284F83D20002222645A69F2
:103B980012F0400F05D01A69636A1A70636A01331C
:103BA80063622268136823F0010313602046FFF75D
:103BB800E3FED4E7074BE36200232363202284F863
:103BC8003D2084F83E302046FFF7E2FBD9E700BFEE
:103BD800853900080000FFFF30B583B0044690F82F
:103BE8003D50EDB20268536823F4E063536000234C
:103BF800019303685A6901921A6842F001021A6037
:103C0800019B0268136823F48063136003685A6891
:103C180012F4006F38D0222D21D02A2D1FD0426BEC
:103C28001268526892B24285428D92B21AB1026C01
:103C380042F0040202645A6822F400625A60606B1F
:103C4800FDF7D6FD01281FD0636B444A1A65606BE7
:103C5800FDF7CDFCC0B1606B036D984714E0A26B13
:103C68001268526892B26285628D92B21AB1226C61
:103C780042F0040222645A6822F400625A60A06B7F
:103C8800FDF7B6FD012842D1638D9BB233B323689B
:103C98005A6912F0040F0AD01A69636A1A70636AC3
:103CA80001336362638D9BB2013B9BB263852368DA
:103CB8005A6912F0400F0AD01A69636A1A70636A67
:103CC80001336362638D9BB2013B9BB26385638D55
:103CD8009BB21BB1236C43F004032364236C13BB16
:103CE8002A2D25D094F83D30DBB2282B29D0236B20
:103CF800222B01D0222D19D100232363202284F8FE
:103D08003D2084F83E302046FFF7EDFA0EE0A36B25
:103D1800124A1A65A06BFDF76AFC0028B4D0A06BA4
:103D2800036D9847B0E72046FFF79AFE03B030BD11
:103D380000232363282384F83D302046FFF7D3FA75
:103D4800D0E7074BE36200232363202284F83D2059
:103D580084F83E302046FFF71BFBE7E7853900086B
:103D68000000FFFFF8B5044602685568C66A90F877
:103D78003E30DBB290F83D10C8B2102B13D0402B68
:103D880011D0236C002B7AD05369002113F0020F55
:103D980078D015F4007F75D0236C03B19169204663
:103DA800FFF7C9FAF8BDD2F818C0516911F0010738
:103DB80005D1B6F52A0FF5D0B6F12A4FF2D017B1D2
:103DC80015F4007F29D111F0080F02D015F4007FF7
:103DD8002AD111F0020F02D015F4007F28D11CF06F
:103DE800040F31D0526812F4006FDBD111F0800F4C
:103DF80005D015F4806F02D011F0040F1CD011F01B
:103E0800040FCFD015F4007FCCD0212818D0402B38
:103E1800C8D12046FFF70CFBC4E72046FDF791FF09
:103E28002046FDF7C5FDBDE72046FDF715FEB9E7BD
:103E38002046FDF726FEB5E72046FFF75BFBB1E716
:103E48002046FFF7A6FAADE7536813F4006FA9D12F
:103E580011F0400F05D015F4806F02D011F0040F57
:103E680009D011F0040F9DD015F4007F9AD0204698
:103E7800FFF7A8FB96E72046FFF7FBFC92E791695E
:103E8800536983E713F0100F02D015F4007F18D19F
:103E980021281AD0292818D013F0400F05D015F47E
:103EA800806F02D013F0040F28D013F0040F3FF4F2
:103EB80079AF15F4007F3FF475AF2046FDF7F4FEA7
:103EC80070E72046FFF788FE6CE713F0800F05D0F7
:103ED80015F4806F02D013F0040F0BD013F0040F09
:103EE8003FF460AF15F4007F3FF45CAF2046FDF768
:103EF800CBFE57E72046FFF7D0F953E72046FFF7F8
:103F0800F3F94FE7034AD2F8883043F47003C2F854
:103F18008830704700ED00E072B6FEE700B595B056
:103F28003022002108A800F001FB0023039304932A
:103F38000593069307930193204A116C41F0805131
:103F48001164126C02F080520192019A02931C4B88
:103F58001A6842F480421A601B6803F48043029393
:103F6800029B012308934FF48033099302220E9297
:103F78004FF480030F9304231093A82111911292F8
:103F8800139308A8FCF7FAFD98B90F2303930223AB
:103F98000493002305934FF4A05306934FF48053E2
:103FA8000793052103A8FDF74FF820B915B05DF870
:103FB80004FBFFF7B1FFFFF7AFFF00BF0038024077
:103FC8000070004000B583B0FDF7AAFCFFF7A6FF1C
:103FD800FCF778FAFCF728FBFCF75AFBFCF798FA91
:103FE800C820FDF7C9FC00F029F9C820FDF7C4FC7A
:103FF80002230093002332220A21012000F0C6F98F
:1040080000F010FAFEE700000B6843600B790372BA
:104018004B794372426106490A78531CDBB20B7034
:10402800044941F82200012B00D9FEE7704700BF80
:10403800180200201002002000B583B08C461346F9
:10404800417A01290DD0022911D001B1FEE764227D
:1040580000926246017A4068FEF72CFA03B05DF8D8
:1040680004FB6246017A4068FEF7E0FAF6E762462A
:10407800017A4068FEF744FBF0E710B584B08C463F
:104088009DF818109DF81C405CB1012401290AD044
:1040980000294AD1417A012935D002293CD039B3C7
:1040A800FEE71024F2E7417A01290FD0022916D041
:1040B80001B1FEE764210291019300922346624612
:1040C800017A4068FEF7E0FB04B010BD019300924E
:1040D80023466246017A4068FEF704FEF4E701933E
:1040E800009223466246017A4068FEF7E1FEEBE75C
:1040F800642102910193009223466246017A406846
:10410800FEF774FCE0E70193009223466246017AC9
:104118004068FEF757FED7E70193009223466246B0
:10412800017A4068FEF7AEFFCEE7FEE738B5844671
:104138000C46002301E00133DBB2094A12789A42A7
:104148000DD91D46074A52F8230042686245F2D14C
:10415800436923B19847034B53F825301C7038BD89
:10416800180200201002002008B50021FFF7DEFF2A
:1041780008BD08B50121FFF7D9FF08BD7047704792
:1041880000B583B0037813B1012B1CD0FEE7164BA2
:104198001B78072B05D0154B1B7843B903B05DF886
:1041A80004FB0023114A13700F4A1370F3E70E4AF9
:1041B80013780133DBB2137004220D4901EB83013C
:1041C800FFF73AFFEAE7094B1B78002BE6D0064BCE
:1041D80019780123019300938023064A02EBC11248
:1041E8004021FFF74AFFD9E71A02002019020020F0
:1041F8001C0200203C060020012800D0704708B5AA
:104208004FF6FF73994200D008BD034A034904489A
:10421800FFF7FAFEF8E700BF894100082C000020EC
:104228003C0A00200246012002E002FB00F0194689
:104238004B1EDBB20029F8D17047000000B583B0EF
:104248000123019300931D23034A00210348FFF72C
:1042580014FF03B05DF804FB0C0000203C0A0020AA
:10426800064B002203F82120A1F1500003EB810145
:10427800487010238B70CA70704700BF1C02002062
:10428800002821DB00291FDB3F291DDC0B46002904
:104298001BDBC3F3C703D1F1000C01F007010CF0DD
:1042A800070C58BFCCF10001C9B2012A0FD0022A6D
:1042B80019D04FF0010C0CFA01FC114A02EBC000B6
:1042C800C15C21EA0C01C1547047CB1DE1E74FF0F6
:1042D800010C0CFA01FC0A4A02EBC000C15C41EA7D
:1042E8000C01C15470474FF0010C0CFA01FC044A50
:1042F80002EBC000C15C81EA0C01C154704700BFE9
:104308003C0200202DE9F04701EB41014F00FFB2CC
:1043180000EB40004FEA80085FFA88F8203A5FFA1D
:1043280082FA44464FF0000920E0002261B278B2D8
:10433800FFF7A6FF6D00EDB20134E4B2A4EB080369
:104348000C2B0CD00136F6B2072E0BD815F0800FC7
:10435800EBD0012261B278B2FFF792FFEAE70137AA
:10436800FFB2444609F101095FFA89F9B9F10B0F67
:1043780008D80AEB4A03044A02EB830313F80950EE
:104388000026E1E7BDE8F0877C4500082DE9F04705
:104398008146884617469A469DF82050002634469E
:1043A8001CE0BAF1000F07D104EB08012022C9B2C2
:1043B8004846FFF7A7FF0FE004EB08013022C9B217
:1043C8004846FFF79FFF07E0303204EB0801D2B2FE
:1043D800C9B24846FFF796FF0134E4B2AC421CD29A
:1043E800291BC9B20139C9B20A20FFF71BFFB7FB65
:1043F800F0F00B4AA2FB003C4FEADC0C0CEB8C0CF7
:10440800A0EB4C0C5FFA8CF2002EDDD16B1E9C42A7
:10441800DADA002AC5D00126D6E7BDE8F08700BF62
:10442800CDCCCCCC10B5114B1C7814B110BD0134D7
:10443800E4B2072C11D821460020FFF711FF002312
:104448007F2BF4D80A4A02EBC302115D094A02EB3A
:10445800C412D15401339BB2F2E7044B01221A7003
:10446800042205490548FFF7E7FDDFE719020020A8
:104478003C0200203C0600201C0200203C0A0020D0
:1044880008B54FF6FF710120FFF7B6FE08BD000022
:10449800DFF834D0FFF736FD0C480D490D4A0023EC
:1044A80002E0D458C4500433C4188C42F9D30A4AE1
:1044B8000A4C002301E013600432A242FBD300F04F
:1044C80011F8FFF77FFD7047000002200000002070
:1044D80034000020044A000834000020540A002058
:1044E800FEE7000070B50D4D0D4C641BA4100026AE
:1044F800A64209D10B4D0C4C00F020F8641BA41007
:104508000026A64205D170BD55F8043B98470136F0
:10451800EEE755F8043B98470136F2E7F8490008FA
:10452800F8490008F8490008004A00080244034610
:10453800934200D1704703F8011BF9E7F8B500BFB3
:10454800F8BC08BC9E467047F8B500BFF8BC08BC6C
:044558009E467047C4
:10455C0000061016000610160000000000000000F7
:10456C00010203040607080900000000010203040D
:10457C00000000000000000000000000000000002F
:10458C003F40000000000000000030004000300000
:10459C004000000009000BC03D000BC03D000900AD
:1045AC0018C024407FE0224031800000180024C055
:1045BC001B000D803240018003801C4027401C8072
:1045CC0007400040100060000000000000000000E8
:1045DC000000000000001F80204040200000402010
:1045EC0020401F8000000000090006001F8006000C
:1045FC0009000000040004003F80040004000000D7
:10460C000010006000000000000000000400040026
:10461C000400040004000000000000400000000042
:10462C0000000000002001C006003800400000001F
:10463C001F802040204020401F80000000001040C0
:10464C003FC000400000000018C021402240244020
:10465C001840000010802040244024401B800000A3
:10466C0002000D0011003FC0014000003C802440BE
:10467C0024402440238000001F80244024403440E8
:10468C00038000003000200027C03800200000000C
:10469C001B802440244024401B8000001C0022C0AE
:1046AC00224022401F800000000000000840000053
:1046BC00000000000000000004600000000000008A
:1046CC00000004000A00110020804040090009008D
:1046DC000900090009000000000040402080110082
:1046EC000A000400180020002340240018000000D9
:1046FC001F802040274029401F400000004007C079
:10470C0039000F0001C0004020403FC0244024402D
:10471C001B8000001F802040204020403080000083
:10472C0020403FC0204020401F80000020403FC060
:10473C0024402E4030C0000020403FC024402E00BA
:10474C00300000000F001080204022403380020017
:10475C0020403FC0040004003FC0204020402040C7
:10476C003FC02040204000000060202020203FC09F
:10477C002000200020403FC024400B0030C02040CF
:10478C0020403FC020400040004000C03FC03C00E3
:10479C0003C03C003FC0000020403FC00C40230041
:1047AC003FC020001F802040204020401F80000080
:1047BC0020403FC024402400180000001F802140EE
:1047CC00214020E01FA0000020403FC024402600D4
:1047DC0019C0004018C02440244022403180000001
:1047EC00300020403FC020403000000020003F80BF
:1047FC00004000403F80200020003E0001C0070028
:10480C0038002000380007C03C0007C0380000000A
:10481C00204039C0060039C020400000200038403C
:10482C0007C0384020000000304021C026403840EE
:10483C0020C00000000000007FE04020402000006D
:10484C00000070000C0003800040000000004020BD
:10485C0040207FE00000000000002000400020000D
:10486C0000000000001000100010001000100010DC
:10487C00000000004000000000000000000002806A
:10488C000540054003C0004020003FC004400440E8
:10489C000380000000000380044004400640000038
:1048AC0000000380044024403FC00040000003800F
:1048BC000540054003400000000004401FC0244098
:1048CC0024402000000002E0055005500650042052
:1048DC0020403FC00440040003C0004000000440DE
:1048EC0027C000400000000000100010041027E05A
:1048FC000000000020403FC00140070004C00440FD
:10490C00204020403FC000400040000007C0040091
:10491C0007C0040003C00000044007C004400400AA
:10492C0003C00040000003800440044003800000EA
:10493C00041007F0045004400380000000000380C2
:10494C000440045007F00010044007C0024004006B
:10495C0004000000000006400540054004C00000B3
:10496C00000004001F800440004000000400078089
:10497C000040044007C000400400070004C0018050
:10498C0006000400060001C0070001C0060000007C
:10499C00044006C0010006C00440000004100710CB
:1049AC0004E00180060004000000044005C006403D
:1049BC00044000000000000004007BE040200000E8
:1049CC00000000000000FFF000000000000040208C
:1049DC007BE004000000000040008000400020004C
:0449EC002000400067
:0849F00008B8FF7F0100000080
:0849F800AD010008894400082C
:044A00008901000820
:104A040001000000100000000024F400AE0010407B
:104A1400B081FFA1A6A83FC8D300D580D805D9F19D
:104A2400DA12DB308D14AF2000000000B801002042
:044A34007802000004
:040000050800449912
:00000001FF
