:020000040800F2
:1000000000000220B1270008C1070008C30700084C
:10001000C5070008C7070008C9070008000000005E
:10002000000000000000000000000000CB070008F6
:10003000CD07000800000000CF070008D107000826
:1000400001280008012800080128000801280008EC
:1000500001280008012800080128000801280008DC
:10006000012800080128000801280008D907000815
:1000700001280008012800080128000801280008BC
:1000800001280008E90700080128000801280008E5
:10009000012800080128000801280008012800089C
:1000A000012800080128000801280008012800088C
:1000B000012800080128000801280008012800087C
:1000C000012800080128000801280008012800086C
:1000D000012800080128000801280008012800085C
:1000E000012800080128000801280008012800084C
:1000F000012800080128000801280008012800083C
:10010000012800080128000801280008012800082B
:10011000012800080128000801280008012800081B
:10012000F907000801280008012800080128000834
:1001300001280008012800080128000801280008FB
:1001400001280008012800080128000801280008EB
:1001500001280008012800080128000801280008DB
:1001600001280008012800080128000801280008CB
:1001700001280008012800080128000800000000EC
:08018000012800080128000815
:1001880010B5054C237833B9044B13B10448AFF3C9
:1001980000800123237010BD3400002000000000FF
:1001A8005C28000808B5034B1BB103490348AFF3AB
:1001B800008008BD00000000380000205C2800080E
:1001C80053B94AB9002908BF00281CBF4FF0FF31B6
:1001D8004FF0FF3000F074B9ADF1080C6DE904CEB2
:1001E80000F006F8DDF804E0DDE9022304B070470A
:1001F8002DE9F047089D04468E46002B4DD18A42D2
:10020800944669D9B2FA82F252B101FA02F3C2F104
:10021800200120FA01F10CFA02FC41EA030E944095
:100228004FEA1C48210CBEFBF8F61FFA8CF708FBB6
:1002380016E341EA034306FB07F199420AD91CEB8E
:10024800030306F1FF3080F01F81994240F21C81C0
:10025800023E63445B1AA4B2B3FBF8F008FB103308
:1002680044EA034400FB07F7A7420AD91CEB04043D
:1002780000F1FF3380F00A81A74240F2078164440D
:10028800023840EA0640E41B00261DB1D440002392
:10029800C5E900433146BDE8F0878B4209D9002DF6
:1002A80000F0EF800026C5E9000130463146BDE880
:1002B800F087B3FA83F6002E4AD18B4202D38242EA
:1002C80000F2F980841A61EB030301209E46002D99
:1002D800E0D0C5E9004EDDE702B9FFDEB2FA82F2EE
:1002E800002A40F09280A1EB0C014FEA1C471FFA4C
:1002F8008CFE0126200CB1FBF7F307FB131140EA33
:1003080001410EFB03F0884208D91CEB010103F1FF
:10031800FF3802D2884200F2CB804346091AA4B2C1
:10032800B1FBF7F007FB101144EA01440EFB00FE95
:10033800A64508D91CEB040400F1FF3102D2A645FA
:1003480000F2BB800846A4EB0E0440EA03409CE799
:10035800C6F12007B34022FA07FC4CEA030C20FA46
:1003680007F401FA06F31C43F9404FEA1C4900FA66
:1003780006F3B1FBF9F8200C1FFA8CFE09FB1811E3
:1003880040EA014108FB0EF0884202FA06F20BD956
:100398001CEB010108F1FF3A80F08880884240F2A6
:1003A8008580A8F102086144091AA4B2B1FBF9F0EA
:1003B80009FB101144EA014100FB0EFE8E4508D9E5
:1003C8001CEB010100F1FF346CD28E456AD902386A
:1003D800614440EA0840A0FB0294A1EB0E01A1424F
:1003E800C846A64656D353D05DB1B3EB080261EBBD
:1003F8000E0101FA07F722FA06F3F1401F43C5E997
:10040800007100263146BDE8F087C2F12003D840CC
:100418000CFA02FC21FA03F3914001434FEA1C470E
:100428001FFA8CFEB3FBF7F007FB10360B0C43EA00
:10043800064300FB0EF69E4204FA02F408D91CEBB0
:10044800030300F1FF382FD29E422DD902386344AE
:100458009B1B89B2B3FBF7F607FB163341EA03414E
:1004680006FB0EF38B4208D91CEB010106F1FF389D
:1004780016D28B4214D9023E6144C91A46EA004694
:1004880038E72E46284605E70646E3E61846F8E626
:100498004B45A9D2B9EB020864EB0C0E0138A3E76F
:1004A8004646EAE7204694E74046D1E7D0467BE750
:1004B800023B614432E7304609E76444023842E7C8
:1004C800704700BF84B000220192104B196B41F0B5
:1004D80080011963196B01F0800101910199029261
:1004E800196B41F001011963196B01F001010291C7
:1004F800029903921A6B42F002021A631B6B03F013
:1005080002030393039B04B0704700BF0038024006
:1005180000B585B000230093019302930393154817
:10052800154A02604FF480324260836003610376AB
:1005380080F82030C362114A8262C3600122C2611E
:1005480080F83030426100F011FA60B9002300935E
:100558000122019202936946064800F033FA28B94D
:1005680005B05DF804FB01F047FFEFE701F044FF39
:10057800F6E700BF50000020002001400100000FF6
:1005880030B589B00023039304930593069307932A
:10059800026803F1804303F590339A4201D009B011
:1005A80030BD04460025019503F58C335A6C42F49E
:1005B80080725A645A6C02F480720192019A029510
:1005C8001A6B42F001021A631B6B03F001030293DA
:1005D800029B012303930323049303A90F4800F00C
:1005E800E9FD0F480F4B036045608560C5604FF417
:1005F800806303614FF4006343614FF400538361E8
:10060800C5610562456200F031FF18B9044BA36368
:100618009C63C4E701F0F0FEF8E700BF0000024069
:10062800980000201064024010B582B000240094A5
:10063800164B1A6B42F400121A631A6B02F400127A
:100648000092009A01941A6B42F480021A631B6BA1
:1006580003F480030193019B224621460B2001F0FD
:100668006BF80B2001F0A0F822462146112001F07A
:1006780063F8112001F098F822462146382001F04D
:100688005BF8382001F090F802B010BD0038024045
:1006980008B50B480B4B03600B4B4360002383608A
:1006A800C3604FF48042026143618361C3610362A6
:1006B80001F08CFB00B908BD01F09EFEFBE700BF0E
:1006C800B801002000540040A086010070B588B031
:1006D80000230393049305930693079302682F4B13
:1006E8009A4201D008B070BD0446002501952C4EF1
:1006F800336B43F002033363336B03F0020301935C
:10070800019B4FF44073039312230493032306932E
:100718000423079303A9234800F04CFD0295336C8A
:1007280043F400133364336C03F400130293029B05
:100738001D481E4B03604FF0007343608560C56021
:100748004FF48063036145618561C5610562456257
:1007580000F08CFED8B9144BA3639C631448154B66
:1007680003604FF000734360402383600023C3603D
:100778004FF48062026143618361C3610362436233
:1007880000F074FE30B90A4B63639C63AAE701F07A
:1007980033FEE0E701F030FEF5E700BF005400400B
:1007A8000038024000040240F800002010600240B7
:1007B80058010020A0600240FEE7FEE7FEE7FEE7E2
:1007C800FEE770477047704708B501F04FF808BD5D
:1007D80008B5024800F0B0FE08BD00BFF8000020D0
:1007E80008B5024800F0A8FE08BD00BF5801002067
:1007F80008B5024800F0A0FE08BD00BF9800002020
:1008080082B0002100910B4B5A6C42F480425A642A
:100818005A6C02F480420092009A01911A6C42F0DC
:1008280080521A641B6C03F080530193019B02B041
:10083800704700BF003802404A4B5A6822F44032E1
:100848005A605A6841680A435A600268536823F438
:100858008073536002685368016943EA0123536057
:100868000268536823F040735360026853688168D4
:100878000B4353600268936823F400639360026833
:100888009368C1680B439360826A374B9A4257D08A
:100898000268936823F07063936002689368816AC2
:1008A8000B4393600268936823F040539360026897
:1008B8009368C16A0B4393600268936823F002034C
:1008C800936002689368017E43EA4103936090F85D
:1008D8002030002B3FD00268536843F40063536014
:1008E8000268536823F46043536001684B68426AA6
:1008F800013A43EA42334B600268D36A23F4700337
:10090800D3620168CB6AC269013A43EA0253CB62F7
:100918000268936823F4007393600268936890F800
:10092800301043EA412393600268936823F480639C
:10093800936002689368416943EA81239360704732
:100948000268936823F0706393600268936823F0E9
:1009580040539360B0E70268536823F40063536020
:10096800CAE700BF002301400100000F38B310B5EB
:100978000446036C43B1236C13F0100F0BD0012015
:10098800002384F83C3010BDFFF7FAFD00236364B0
:1009980084F83C30EFE7236C23F4885323F00203F8
:1009A80043F0020323642046FFF746FF00206064FB
:1009B800236C23F0030343F001032364E0E70120E1
:1009C8007047000030B482B00023019390F83C30A7
:1009D800012B00F0BB80012380F83C300B68092B09
:1009E80041D90468E2689BB203EB43031E3B4FF016
:1009F800070C0CFA03F322EA0303E3600468E268D5
:100A08000B8803EB43031E3B8D6805FA03F313437E
:100A1800E3604B68062B3DD80468626B03EB8303E5
:100A2800053B4FF01F0C0CFA03F322EA0303636340
:100A38000468626B4B6803EB8303053BB1F800C0A5
:100A48000CFA03F3134363630268414B9A4251D093
:100A580002683F4B9A4256D0002380F83C30184633
:100A680002B030BC7047046822699BB203EB4303B1
:100A78004FF0070C0CFA03F322EA0303236104681E
:100A880022690B8803EB43038D6805FA03F31343CC
:100A98002361BEE70C2B16D805682A6B03EB83038A
:100AA800233B1F2404FA03F322EA03032B6305689C
:100AB8002A6B4B6803EB8303233B0C8804FA03F38C
:100AC80013432B63C0E70568EA6A03EB8303413BE2
:100AD8001F2404FA03F322EA0303EB620568EA6AB7
:100AE8004B6803EB8303413B0C8804FA03F313437D
:100AF800EB62A9E70B68122BAAD1164A536843F494
:100B080080035360A4E70B68103B012BA4D8114A5B
:100B1800536843F4000353600B68102B9CD10E4BB1
:100B28001B6802F1467202F52E3202F28332A2FBF2
:100B380003239B0C03EB83035B00019302E0019BFF
:100B4800013B0193019B002BF9D185E7022087E740
:100B5800002001400023014008000020002800F088
:100B6800E08170B582B00446036813F0010F3BD0F2
:100B78009F4B9B6803F00C03042B2CD09C4B9B6869
:100B880003F00C03082B21D06368B3F5803F4FD0E6
:100B9800B3F5A02F52D0964B1A6822F480321A600F
:100BA8001A6822F480221A606368002B50D000F083
:100BB80069FE05468E4B1B6813F4003F14D100F004
:100BC80061FE401B6428F5D90320B1E1884B5B68BE
:100BD80013F4800FD8D0864B1B6813F4003F03D062
:100BE8006368002B00F09F81236813F0020F54D034
:100BF8007F4B9B6813F00C0F3ED07D4B9B6803F036
:100C08000C03082B33D0E368002B68D0794B012202
:100C18001A6000F037FE0546754B1B6813F0020F8B
:100C280054D100F02FFE401B0228F5D903207FE1A4
:100C38006F4A136843F480331360B5E76C4B1A6846
:100C480042F480221A601A6842F480321A60ABE7D4
:100C580000F018FE0546664B1B6813F4003FC3D02E
:100C680000F010FE401B6428F5D9032060E1604BBA
:100C78005B6813F4800FC6D15D4B1B6813F0020F3D
:100C880003D0E368012B40F05081594A136823F0E0
:100C9800F803216943EAC1031360236813F0080FBE
:100CA80042D063696BB3534B0122C3F8802E00F026
:100CB800E9FD05464E4B5B6F13F0020F34D100F08F
:100CC800E1FD401B0228F5D9032031E1484A1368A9
:100CD80023F0F803216943EAC1031360DDE7454BBC
:100CE80000221A6000F0CEFD0546414B1B6813F048
:100CF800020FD2D000F0C6FD401B0228F5D9032010
:100D080016E13C4B0022C3F8802E00F0BBFD0546DF
:100D1800374B5B6F13F0020F06D000F0B3FD401B9A
:100D28000228F5D9032003E1236813F0040F77D0D4
:100D38002F4B1B6C13F0805F33D1002301932C4B96
:100D48001A6C42F080521A641B6C03F080530193B2
:100D5800019B0125284B1B6813F4807F23D0A368CF
:100D6800012B34D0052B38D0214B1A6F22F0010209
:100D78001A671A6F22F004021A67A368002B3DD085
:100D880000F080FD06461A4B1B6F13F0020F46D188
:100D980000F078FD801B41F288339842F3D9032094
:100DA800C6E00025D6E7144A136843F4807313603D
:100DB80000F068FD0646104B1B6813F4807FCED107
:100DC80000F060FD801B0228F5D90320B0E0084A36
:100DD800136F43F001031367CFE7054B1A6F42F017
:100DE80004021A671A6F42F001021A67C5E700BFCA
:100DF80000380240000047420070004000F042FD09
:100E08000646524B1B6F13F0020F08D000F03AFD54
:100E1800801B41F288339842F3D9032088E0EDB96A
:100E2800A369002B00F08380484A926802F00C0204
:100E3800082A51D0022B17D0454B00221A6600F021
:100E480021FD0446414B1B6813F0007F42D000F09F
:100E580019FD001B0228F5D9032069E03B4A136CF1
:100E680023F080531364DBE7394B00221A6600F045
:100E780009FD0546354B1B6813F0007F06D000F0CE
:100E880001FD401B0228F5D9032051E0E369226ADD
:100E98001343626A43EA8213A26A5208013A43EA98
:100EA8000243E26A43EA0263284A5360284B01225C
:100EB8001A6600F0E7FC0446244B1B6813F0007F19
:100EC80006D100F0DFFC001B0228F5D903202FE033
:100ED80000202DE000202BE0012B2BD01B4B5B6862
:100EE80003F48001E269914226D103F03F02216AAE
:100EF8008A4223D1616A47F6C0721A40B2EB811F59
:100F08001ED103F44031A26A5208013AB1EB024FF4
:100F180018D103F07063E26AB3EB026F14D10020BA
:100F280006E001207047012002E0012000E00020D7
:100F380002B070BD0120FBE70120F9E70120F7E7C7
:100F48000120F5E70120F3E70120F1E7003802402E
:100F58000000474208B5314B9B6803F00C03042B93
:100F680057D0082B57D12D4B5A6802F03F025B68C7
:100F780013F4800F2AD0294B5968C1F3881C4FEA13
:100F88004C11B1EB0C006EEB0E0E4FEA8E1343EAD8
:100F980090638101091A63EB0E03DB0043EA517386
:100FA800C90011EB0C0C43F10003590200234FEA6E
:100FB8004C2041EADC51FFF703F9184B5B68C3F397
:100FC800014301335B00B0FBF3F025E0134B596894
:100FD800C1F3881C4FEA4C11B1EB0C006EEB0E0EFE
:100FE8004FEA8E1343EA90638101091A63EB0E03FB
:100FF800DB0043EA5173C90011EB0C0C43F1000309
:10100800990200234FEA8C2041EA9C51FFF7D8F857
:10101800D3E7034800E0034808BD00BF003802409A
:1010280000127A000024F400002800F09B8070B5BC
:101038000D4604464F4B1B6803F007038B4208D24A
:10104800CBB24C4A1370136803F007038B4240F08D
:101058008B80236813F0020F17D013F0040F04D00D
:10106800454A936843F4E0539360236813F0080FEC
:1010780004D0414A936843F4604393603E4A9368BE
:1010880023F0F003A1680B439360236813F0010F6A
:1010980032D06368012B21D09A1E012A25D9364AFD
:1010A800126812F0020F61D033498A6822F00302F5
:1010B80013438B6000F0E6FB06462F4B9B6803F05A
:1010C8000C036268B3EB820F16D000F0DBFB801BC9
:1010D80041F288339842F0D9032042E0264A126848
:1010E80012F4003FE0D101203BE0234A126812F0DD
:1010F800007FD9D1012034E01E4B1B6803F00703A1
:10110800AB4207D9EAB21B4B1A701B6803F00703FE
:10111800AB422DD1236813F0040F06D0164A93680A
:1011280023F4E053E1680B439360236813F0080F3E
:1011380007D0114A936823F46043216943EAC10345
:101148009360FFF707FF0C4B9B68C3F303130B4A2D
:10115800D35CD8400A4B18600A4B186800F046FB6D
:10116800002070BD012070470120FAE70120F8E750
:101178000120F6E7003C0240003802407C280008C5
:101188000800002004000020014B1868704700BFC9
:101198000800002008B5FFF7F7FF044B9B68C3F36E
:1011A8008223034AD35CD84008BD00BF0038024000
:1011B8008C28000800230F2B00F2E48070B582B061
:1011C80060E085685E000324B44025EA0405CC6825
:1011D800B4402C438460456825EA02054C68C4F392
:1011E80000129A402A4342605AE0DC08083450F85A
:1011F800246003F0070295000F22AA4026EA020E97
:101208000A69AA4042EA0E0240F824205CE007225C
:1012180000E0002202FA0EF22A4302345A4D45F841
:1012280024205A4A94686FEA0C0224EA0C054E6896
:1012380016F4801F01D04CEA0405544CA560E468FC
:1012480002EA04054E6816F4001F01D04CEA0405B2
:101258004E4CE560646802EA04054E6816F4003FE7
:1012680001D04CEA0405494C6560246822404D6869
:1012780015F4803F01D04CEA0402444C226001334B
:101288000F2B7DD801229A400C6804EA020C32EA3E
:101298000404F4D14C6804F00304013C012C90D9F7
:1012A8004A6802F00302032A09D0C4685D000322D9
:1012B800AA4024EA02048A68AA402243C2604A6813
:1012C80002F00302022A90D004684FEA430E032278
:1012D80002FA0EF224EA02044A6802F0030202FA51
:1012E8000EF2224302604A6812F4403FC7D000223F
:1012F8000192274A546C44F480445464526C02F4BA
:1013080080420192019A9C08A51C1F4A52F8255058
:1013180003F003024FEA820E0F2202FA0EF225EAC8
:1013280002051C4A90423FF474AF02F58062904275
:101338001AD002F58062904218D002F5806290427D
:1013480016D002F58062904214D002F58062904275
:1013580012D002F58062904210D002F5806290426D
:101368003FF455AF082255E7012253E7022251E71F
:1013780003224FE704224DE705224BE7062249E7FF
:1013880002B070BD704700BF00380140003C01400A
:10139800003802400000024010B40368D9B2103986
:1013A8000C4AA2FB014212090B4CA25CC2655F29E0
:1013B80009D923F47F7323F0030304338365806D15
:1013C8005DF8044B704723F47F7323F003038365B0
:1013D800F5E700BFABAAAAAA74280008836A826945
:1013E80092B9012B0AD0022B02D00BB10020704712
:1013F800C36A13F0807F28D100207047C36AB3F115
:10140800C07F24D000207047B2F5005F09D0022BBE
:1014180025D9032B25D1C36A13F0807F23D100205F
:101428007047032B03D8DFE803F01404140A0020E4
:101438007047C36A13F0807F0DD100207047C36ADC
:10144800B3F1C07F09D00020704701207047012008
:101458007047012070470120704701207047012024
:1014680070470020704701207047000070B504469F
:1014780000F008FA002C5BD00546022384F83530CA
:10148800002384F834302268136823F001031360C2
:1014980023681A6812F0010F0AD000F0F3F9431B11
:1014A800052BF5D920236365032084F8350070BD2A
:1014B8001A68204810406168A2680A43E1680A4334
:1014C80021690A4361690A43A1690A43E1690A4338
:1014D800216A0A430243616A04291ED01A602668F9
:1014E800756925F00705636A1D43042B07D1A36AB4
:1014F8001D43E36A1BB12046FFF770FF90B9756181
:101508002046FFF749FFE26D3F23934083600020A8
:101518006065012384F83530C9E7E16A206B01432F
:101528000A43DBE740236365012084F83500BEE702
:101538000120BCE73F8010F0F0B583B004460023DB
:101548000193724B1D68724BA3FB0535AD0A876D7D
:101558003E68C26D08239340334210D003681A686E
:1015680012F0040F0BD01A6822F004021A60C26D40
:1015780008239340BB60436D43F001034365E26D6C
:1015880001239340334209D02268526912F0800F38
:1015980004D0BB60636D43F002036365E26D04230E
:1015A8009340334209D02268126812F0020F04D027
:1015B800BB60636D43F004036365E26D10239340E1
:1015C800334224D02268126812F0080F1FD0BB6083
:1015D80023681A6812F4802F0DD01B6813F4002FAB
:1015E80004D1236C9BB12046984710E0A36C73B1DB
:1015F800204698470BE01A6812F4807F03D11A68D6
:1016080022F008021A60236C0BB120469847E26D5D
:1016180020239340334255D02268126812F0100FED
:1016280050D0BB6094F83530DBB2052B0ED0236860
:101638001A6812F4802F33D01B6813F4002F2AD1B4
:10164800636C002B3ED0204698473BE02268136825
:1016580023F0160313602268536923F08003536153
:10166800236CA3B12268136823F008031360E26DAA
:101678003F239340BB60012384F83530002384F86E
:101688003430236D002B3FD0204698473CE0A36CB4
:10169800002BE7D1EBE7E36BA3B12046984711E0B5
:1016A8001A6812F4807F09D11A6822F010021A60B1
:1016B800012384F83530002384F83430E36B0BB110
:1016C80020469847636DFBB1636D13F0010F17D087
:1016D800052384F835302268136823F0010313606A
:1016E800019B01330193AB4204D823681B6813F0B4
:1016F800010FF5D1012384F83530002384F8343004
:10170800E36C0BB12046984703B0F0BD08000020F9
:10171800B5814E1B074AD36823F4E0631B041B0CF6
:10172800000200F4E060034343F0BF6343F4003376
:10173800D360704700ED00E000B5194BDB68C3F3D8
:101748000223C3F1070CBCF1040F28BF4FF0040CAF
:1017580003F1040EBEF1060F18D9033B4FF0FF3E0C
:101768000EFA0CFC21EA0C0199400EFA03F322EA66
:101778000303194300280BDB0901C9B200F16040DB
:1017880000F5614080F800135DF804FB0023E5E7ED
:1017980000F00F000901C9B2024B1954F4E700BF69
:1017A80000ED00E014ED00E0002807DB00F01F0268
:1017B800400901239340024A42F82030704700BF95
:1017C80000E100E00138B0F1807F0BD24FF0E02358
:1017D8005861054AF02182F82310002098610722F9
:1017E8001A6170470120704700ED00E010B504460B
:1017F8000E4B18784FF47A73B3FBF0F30C4A106869
:10180800B0FBF3F0FFF7DEFF68B90F2C01D9012018
:101818000AE0002221464FF0FF30FFF78DFF054B0D
:101828001C60002000E0012010BD00BF0000002067
:10183800080000200400002008B50B4B1A6842F489
:1018480000721A601A6842F480621A601A6842F4D8
:1018580080721A600320FFF75DFF0F20FFF7C6FFB5
:10186800FEF7CEFF002008BD003C0240034A116885
:10187800034B1B780B441360704700BF0C02002019
:1018880000000020014B1868704700BF0C020020C0
:1018980038B50446FFF7F6FF0546B4F1FF3F02D01E
:1018A800044B1B781C44FFF7EDFF401BA042FAD302
:1018B80038BD00BF0000002003685A6912F4806F29
:1018C80001D1002070476FF480625A6100230363DE
:1018D800202280F83D2080F83E30026C42F004025D
:1018E800026480F83C30012070472DE9F04106463B
:1018F8000C46174698463BE0FFF7C4FF069BC01A04
:10190800404502D8B8F1000F32D1012D18D0336804
:101918009B6924EA03039BB2B3FA83F35B099F42F2
:1019280026D100233363202286F83D2086F83E30F6
:10193800326C42F02002326486F83C30012027E005
:1019480033685B6924EA03039BB2B3FA83F35B0948
:10195800E5E733685B6924EA030C1FFA8CFCBCFAE0
:101968008CFC4FEA5C1C674511D1B8F1FF3FC3D12D
:10197800C4F30745012DECD033689B6924EA030CB6
:101988001FFA8CFCBCFA8CFC4FEA5C1CEBE70020CD
:10199800BDE8F0812DE9F84305460E469046994684
:1019A80053E01A6842F400721A602B686FF4806280
:1019B8005A6100232B63202285F83D2085F83E30AC
:1019C8002A6C42F004022A6485F83C3001204AE07F
:1019D800FFF758FFA0EB0900404502D8B8F1000F07
:1019E80033D1012F17D02B689B6926EA03039BB2DA
:1019F800003B18BF012343B300232B63202285F843
:101A08003D2085F83E302A6C42F020022A6485F891
:101A18003C30012027E02B685B6926EA03039BB270
:101A2800003B18BF0123E6E72B689C6926EA0404FB
:101A3800A4B2003C18BF0124A4B12B685A6912F45F
:101A4800806FAED1B8F1FF3FC2D1C6F30747012F6F
:101A5800EAD12B685C6926EA0404A4B2003C18BFEA
:101A68000124E9E70020BDE8F88370B504460D4677
:101A7800164623685B6913F0800F21D12046FFF7D3
:101A88001BFFF8B9B5F1FF3FF3D0FFF7FBFE801B52
:101A9800A84201D8002DECD123685B6913F0800FB0
:101AA800E7D100232363202284F83D2084F83E30C8
:101AB800226C42F02002226484F83C30012000E0CD
:101AC800002070BD0120FCE72DE9F04385B00446F5
:101AD8000D4691461F46DDF830800D9E0368196853
:101AE80041F4807119600096434600224FF00111BD
:101AF800FFF7FBFE60B9236805F0FE051D6133465C
:101B0800424626492046FFF745FF68B1012008E014
:101B180023681B6813F4807F02D04FF4007323649A
:101B2800032005B0BDE8F0830023039323685A69B6
:101B380003929B690393039B324641462046FFF775
:101B480094FF30B9012F0FD123685FFA89F61E611F
:101B5800E7E7236C042B01D00120E2E72268136831
:101B680043F400731360F7E723684FEA19221A61F8
:101B7800324641462046FFF778FF20B923685FFACE
:101B880089F61E61CDE7236C042B01D00120C8E73C
:101B98002268136843F400731360F7E7020001003A
:101BA8002DE9F04784B004460D46164699460C9F29
:101BB800DDF834800268136843F4806313600368B7
:101BC800196841F480711960CDF800803B46002205
:101BD8004FF00111FFF789FE70B95FFA85FA2368A3
:101BE80005F0FE051D6143463A4641492046FFF788
:101BF800D1FE68B1012008E023681B6813F4807FD8
:101C080002D04FF400732364032004B0BDE8F087CA
:101C18000023039323685A6903929B690393039BE8
:101C2800424639462046FFF720FF80B9B9F1010F37
:101C380018D12368F6B21E61424639462046FFF79E
:101C480014FF68B3236C042B24D00120DDE7236C38
:101C5800042B01D00120D8E72268136843F40073ED
:101C68001360F7E72368320A1A614246394620466C
:101C7800FFF7FBFE18B92368F6B21E61DCE7236C98
:101C8800042B01D00120C0E72268136843F40073D5
:101C98001360F7E72268136843F400731360D4E70E
:101CA8002268136843F480731360CDF800803B46C4
:101CB80000224FF001112046FFF717FE68B922688D
:101CC8004AF00103136143463A4609492046FFF7A3
:101CD80061FE002899D0012097E723681B6813F458
:101CE800807F02D04FF40073236403208DE700BF88
:101CF8000200010070B504460D46164623685B696C
:101D080013F0040F21D12046FFF7D6FDF8B9B5F13D
:101D1800FF3FF3D0FFF7B6FD801BA84201D8002D86
:101D2800ECD123685B6913F0040FE7D10023236328
:101D3800202284F83D2084F83E30226C42F02002B4
:101D4800226484F83C30012000E0002070BD0120AE
:101D5800FCE770B504460D46164614E06FF0100215
:101D68005A6100232363202284F83D2084F83E3002
:101D7800226C226484F83C30012025E023685B69EA
:101D880013F0400F10D02368586910F0400F1AD193
:101D9800586910F0100FE1D1FFF774FD801BA842BD
:101DA800ECD8002DEFD1E9E700232363202284F843
:101DB8003D2084F83E30226C42F02002226484F8F0
:101DC8003C30012000E0002070BD0000002800F039
:101DD800CC8070B5044690F83D30002B77D0242392
:101DE80084F83D302268136823F0010313602268E9
:101DF800136843F4004313602268136823F4004314
:101E08001360FFF7C7F962685A4B9A4264D85A4B75
:101E180098428CBF00230123002B40F0A88057492B
:101E2800A1FB00318B0C25686A6822F03F0242EA68
:101E380091426A6021680A6A22F03F0266684D4D45
:101E4800AE424FD8013313430B622168CA6922F4AA
:101E58004F4222F0FF026668464B9E424CD8431E12
:101E68007600B3FBF6F3013340F6FC70034278D0FA
:101E7800C3F30B031343CB6121680B6823F0C00342
:101E8800E269206A024313430B6021688B6823F4DC
:101E9800034323F0FF032269E068024313438B6086
:101EA8002168CB6823F0FF036269A06902431343EA
:101EB800CB602268136843F001031360002020649C
:101EC800202384F83D30206384F83E0070BD80F8FC
:101ED8003C30FEF7FBFB82E7294B98428CBF00237E
:101EE800012399E74FF4967505FB03F3254DA5FBF0
:101EF80003539B090133A6E7A368BBB9451E06EB4C
:101F0800460CB5FBFCF50135C5F30B05B5FA85F5AF
:101F18006D0945BBC3B9013806EB4603B0FBF3F3C3
:101F28000133C3F30B0343F40043A3E7451E06EB59
:101F3800860C0CEB8C0CB5FBFCF50135C5F30B05D9
:101F4800B5FA85F56D09E4E7013806EB860303EB7E
:101F58008303B0FBF3F30133C3F30B0343F44043B0
:101F680088E7042386E7012384E7012070470120DE
:101F7800ACE700BFA08601007F841E0083DE1B4300
:101F8800FF083D00D34D62102DE9F04383B00446AD
:101F98000F46904699460C9EFFF774FC054694F848
:101FA8003D00C0B2202803D0022003B0BDE8F08372
:101FB8000095192301224B492046FFF796FC00287B
:101FC80040F0898094F83C30012B00F08680012392
:101FD80084F83C3023681A6812F0010F03D11A689C
:101FE80042F001021A602268136823F40063136048
:101FF800212384F83D30402384F83E3000232364B5
:102008000A9B6362BDF82C306385638D2385364B4C
:10201800E362019500964B46424639462046FFF753
:1020280053FD00285BD1238D002B35D02A4631463D
:102038002046FFF71AFD20BB626A236812781A61EE
:10204800626A531C6362218D013989B22185638DCF
:102058009BB2013B9BB263852368586910F0040F5B
:10206800E1D00029DFD052781A61636A01336362D4
:10207800238D013B2385638D9BB2013B9BB2638516
:10208800D1E7236C042B01D001208EE72268136866
:1020980043F400731360F7E72A4631462046FFF7FA
:1020A80029FE50B1236C042B01D001207DE7226862
:1020B800136843F400731360F7E72268136843F466
:1020C80000731360202384F83D30002384F83E30E9
:1020D80084F83C3069E7022067E7022065E70120C1
:1020E80063E700BF020010000000FFFF2DE9F04386
:1020F80087B004460F4690469946109EFFF7C2FBEC
:10210800054694F83D00C0B2202804D0022738467E
:1021180007B0BDE8F08300951923012288492046BD
:10212800FFF7E3FB002840F04D8194F83C30012B89
:1021380000F04A81012384F83C3023681A6812F0C1
:10214800010F03D11A6842F001021A60226813686D
:1021580023F400631360222384F83D30402384F87D
:102168003E30002323640E9B6362BDF83C306385D8
:10217800638D2385734BE362019500964B46424677
:1021880039462046FFF70CFD0746002840F01E811F
:10219800238D5BB9029323685A6902929A69029265
:1021A800029A1A6842F400721A6075E0012B0AD08C
:1021B800022B1AD00023059323685A6905929B695C
:1021C8000593059B68E02268136823F48063136015
:1021D8000023039323685A6903929A690392039A26
:1021E8001A6842F400721A6056E02268136823F4F1
:1021F800806313602268136843F40063136000234C
:10220800049323685A6904929B690493049B43E0EE
:102218002A4631462046FFF79CFD002840F0D8802A
:1022280023681A69636A1A70636A01336362238DCB
:10223800013B2385638D9BB2013B9BB263852BE0F9
:1022480000953346002240492046FFF74EFB002800
:1022580040F0C0802268136843F400731360236859
:102268001A69636A1A70626A531C6362238D013BA0
:102278002385638D9BB2013B9BB2638523681B69F1
:102288005370636A01336362238D013B2385638D39
:102298009BB2013B9BB26385238D002B00F08980A4
:1022A800032B53D8012BB3D0022BC9D0009533464A
:1022B800002225492046FFF718FB002840F08C80B3
:1022C8002268136823F48063136023681A69636AB9
:1022D8001A70636A01336362238D013B2385638D22
:1022E8009BB2013B9BB26385009533460022164999
:1022F8002046FFF7FAFA002870D12268136843F4E1
:102308000073136023681A69636A1A70626A531C3F
:102318006362238D013B2385638D9BB2013B9BB296
:10232800638523681B695370636A01336362238D75
:10233800013B2385638D9BB2013B9BB26385ABE771
:10234800020010000000FFFF040001002A46314689
:102358002046FFF7FEFC002842D123681A69636A09
:102368001A70636A01336362228D013A92B2228540
:10237800638D9BB2013B9BB263852368596911F059
:10238800040F89D0032A0FD023681A69636A1A7068
:10239800636A01336362238D013B2385638D9BB29E
:1023A800013B9BB2638577E71A6822F480621A6062
:1023B800EAE7202384F83D30002384F83E3084F88F
:1023C8003C30A4E60227A2E60227A0E601279EE603
:1023D80001279CE601279AE6012798E6012796E659
:1023E800012794E6034AD2F8883043F47003C2F810
:1023F8008830704700ED00E072B6FEE700B595B092
:102408003022002108A800F01DFA0023039304934A
:102418000593069307930193204A116C41F080516C
:102428001164126C02F080520192019A02931C4BC3
:102438001A6842F480421A601B6803F480430293CE
:10244800029B012308934FF48033099302220E92D2
:102458004FF480030F9304231093A8211191129233
:10246800139308A8FEF77AFB98B90F230393022366
:102478000493002305934FF4A05306934FF480531D
:102488000793052103A8FEF7CFFD20B915B05DF825
:1024980004FBFFF7B1FFFFF7AFFF00BF00380240B2
:1024A8000070004000B583B0FFF7C6F9FFF7A6FF3C
:1024B800FEF708F8FEF7B8F8FEF7EAF8FEF728F88E
:1024C800C820FFF7E5F900F06DF8C820FFF7E0F93C
:1024D800064A0521002000F049F902200090002357
:1024E80032220C2100F0F6F8FEE700BF942800081D
:1024F80010B40C68046091F804C080F804C04979ED
:10250800417102615DF8044B704710B584B0844690
:102518009DF818009DF81C4024B10124012803D01F
:1025280078B1FEE71024F9E7642002900193009245
:1025380023460A469CF80410DCF80000FFF724FD47
:102548000BE0642002900193009223460A469CF80F
:102558000410DCF80000FFF7C9FD04B010BD704797
:10256800012800D0704708B54FF6FF73994200D094
:1025780008BD034A03490448FFF7BAFFF8E700BF5C
:10258800672500082C0000201006002002460120C4
:1025980002E002FB00F019464B1EDBB20029F8D11D
:1025A8007047000000B583B00123019300931D23F9
:1025B800034A00210348FFF7A8FF03B05DF804FBB6
:1025C8000C00002010060020002821DB00291FDB5A
:1025D8003F291DDC0B4600291BDBC3F3C703D1F1E0
:1025E800000C01F007010CF0070C58BFCCF10001FA
:1025F800C9B2012A0FD0022A19D04FF0010C0CFAE7
:1026080001FC114A02EBC000C15C21EA0C01C15473
:102618007047CB1DE1E74FF0010C0CFA01FC0A4AA8
:1026280002EBC000C15C41EA0C01C15470474FF095
:10263800010C0CFA01FC044A02EBC000C15C81EAFF
:102648000C01C154704700BF100200202DE9F0476B
:1026580001EB41014F00FFB200EB40004FEA800858
:102668005FFA88F8203A5FFA82FA44464FF0000988
:1026780020E0002261B278B2FFF7A6FF6D00EDB24C
:102688000134E4B2A4EB08030C2B0CD00136F6B2EB
:10269800072E0BD815F0800FEBD0012261B278B26B
:1026A800FFF792FFEAE70137FFB2444609F1010953
:1026B8005FFA89F9B9F10B0F08D80AEB4A03044A03
:1026C80002EB830313F809500026E1E7BDE8F08721
:1026D800A02800082DE9F0478146884617469A4603
:1026E8009DF82050002634461CE0BAF1000F07D1AF
:1026F80004EB08012022C9B24846FFF7A7FF0FE004
:1027080004EB08013022C9B24846FFF79FFF07E0F3
:10271800303204EB0801D2B2C9B24846FFF796FF3F
:102728000134E4B2AC421CD2291BC9B20139C9B286
:102738000A20FFF72BFFB7FBF0F00B4AA2FB003C87
:102748004FEADC0C0CEB8C0CA0EB4C0C5FFA8CF217
:10275800002EDDD16B1E9C42DADA002AC5D0012694
:10276800D6E7BDE8F08700BFCDCCCCCCF8B506469F
:102778000C461746002501E00135EDB27A5D5AB1E5
:1027880021463046FFF762FF0134E4B2142CF3D936
:102798000136F6B20024EFE7F8BD08B54FF6FF7131
:1027A8000120FFF7DDFE08BDDFF834D0FFF71AFE81
:1027B8000C480D490D4A002302E0D458C450043394
:1027C800C4188C42F9D30A4A0A4C002301E013606A
:1027D8000432A242FBD300F011F8FFF763FE704702
:1027E800000002200000002034000020282D0008EE
:1027F8003400002024060020FEE7000070B50D4DCF
:102808000D4C641BA4100026A64209D10B4D0C4C9C
:1028180000F020F8641BA4100026A64205D170BD64
:1028280055F8043B98470136EEE755F8043B9847BE
:102838000136F2E71C2D00081C2D00081C2D00088D
:10284800242D000802440346934200D1704703F840
:10285800011BF9E7F8B500BFF8BC08BC9E467047F5
:0C286800F8B500BFF8BC08BC9E467047E5
:1028740000061016000610160000000000000000FC
:102884000102030406070809000000000102030412
:1028940073686F7720737472696E670000000000BC
:1028A4000000000000000000000000003F400000A5
:1028B4000000000000003000400030004000000034
:1028C40009000BC03D000BC03D00090018C02440A6
:1028D4007FE0224031800000180024C01B000D80DE
:1028E4003240018003801C4027401C800740004088
:1028F4001000600000000000000000000000000064
:1029040000001F80204040200000402020401F8005
:1029140000000000090006001F80060009000000F6
:10292400040004003F800400040000000010006064
:102934000000000000000000040004000400040083
:10294400040000000000004000000000000000003F
:10295400002001C006003800400000001F80204015
:10296400204020401F800000000010403FC0004075
:102974000000000018C021402240244018400000FC
:1029840010802040244024401B80000002000D00E1
:1029940011003FC0014000003C80244024402440FA
:1029A400238000001F802440244034400380000022
:1029B4003000200027C03800200000001B80244085
:1029C400244024401B8000001C0022C022402240DE
:1029D4001F8000000000000008400000000000000C
:1029E400000000000460000000000000000004007B
:1029F4000A00110020804040090009000900090074
:102A04000900000000004040208011000A0004007A
:102A14001800200023402400180000001F802040DC
:102A2400274029401F400000004007C039000F0024
:102A340001C0004020403FC0244024401B800000CF
:102A44001F802040204020403080000020403FC0B4
:102A5400204020401F80000020403FC024402E40E2
:102A640030C0000020403FC024402E003000000051
:102A74000F001080204022403380020020403FC0DD
:102A8400040004003FC02040204020403FC02040BC
:102A9400204000000060202020203FC020002000B3
:102AA40020403FC024400B0030C0204020403FC0A5
:102AB40020400040004000C03FC03C0003C03C0038
:102AC4003FC0000020403FC00C4023003FC0200016
:102AD4001F802040204020401F80000020403FC035
:102AE40024402400180000001F802140214020E0E1
:102AF4001FA0000020403FC02440260019C0004011
:102B040018C024402440224031800000300020407E
:102B14003FC020403000000020003F8000400040C3
:102B24003F80200020003E0001C007003800200044
:102B3400380007C03C0007C038000000204039C0FE
:102B4400060039C0204000002000384007C038404B
:102B540020000000304021C02640384020C0000042
:102B6400000000007FE040204020000000007000D2
:102B74000C000380004000000000402040207FE063
:102B840000000000000020004000200000000000C1
:102B940000100010001000100010001000000000D1
:102BA40040000000000000000000028005400540D5
:102BB40003C0004020003FC00440044003800000E4
:102BC400000003800440044006400000000003802D
:102BD400044024403FC000400000038005400540FD
:102BE40003400000000004401FC024402440200093
:102BF400000002E0055005500650042020403FC06C
:102C04000440040003C000400000044027C000400A
:102C14000000000000100010041027E00000000075
:102C240020403FC00140070004C004402040204031
:102C34003FC000400040000007C0040007C004007B
:102C440003C00000044007C00440040003C0004067
:102C5400000003800440044003800000041007F0D7
:102C6400045004400380000000000380044004502A
:102C740007F00010044007C00240040004000000F4
:102C8400000006400540054004C0000000000400A8
:102C94001F800440004000000400078000400440FE
:102CA40007C000400400070004C0018006000400BF
:102CB400060001C0070001C006000000044006C071
:102CC400010006C0044000000410071004E0018065
:102CD400060004000000044005C006400440000053
:102CE4000000000004007BE0402000000000000021
:102CF4000000FFF000000000000040207BE0040022
:102D0400000000004000800040002000200040003F
:082D1400E4D4FF7F0100000080
:082D1C00AD010008A327000827
:042D24008901000819
:102D280001000000100000000024F400AE00104074
:102D3800B081FFA1A6A83FC8D300D580D805D9F196
:102D4800DA12DB308D14AF2000000000B80100203B
:042D580078020000FD
:04000005080027B117
:00000001FF
